:100000000C94A7020C94EE020C94EE020C94EE02F7
:100010000C94EE020C94EE020C94EE020C94EE02A0
:100020000C94EE020C94EE020C94BA270C948C28DB
:100030000C94141E0C94EE020C94EE020C94EE023E
:100040000C94EE020C94EE020C94EE020C94EE0270
:100050000C94EE020C947C1E0C94EE020C94EE02B6
:100060000C94EE020C94EE020C94EE020C94EE0250
:100070000C94EE020C94EE020C94EE020C94EE0240
:100080000C94EE020C94EE020C94EE020C94EE0230
:100090000C94EE020C94EE020C94EE020C94EE0220
:1000A0000C94EE020C94EE020C94EE02430545050E
:1000B0005005470549054B054D054F0552055405AB
:1000C0005605610558055A055C055E056005630522
:1000D000C713C713F913F91337145714EC15EC159C
:1000E0009914EC1546154615B815C115EC15E5150E
:1000F00053155315531553155315531553155315C0
:1001000053155315531553155315531553155315AF
:1001100064157215791580158A157D167D168F1652
:100120008F1686168F168F168F167D167D168B16D8
:100130008F168F168B16F9282029122A2029122AA9
:100140006C298F29122AE529F42907634236B79BC7
:10015000D8A71A39685618AEBAAB558C1D3CB7CC27
:100160005763BD6DEDFD753EF6177231BF0000009F
:10017000803F05A84CCDB2D44EB93836A9020C50F8
:10018000B9918688083CA6AAAA2ABE000000803F32
:1001900029001E001F00200021002200230024004F
:1001A0002500260027002D002E00310035002B00F1
:1001B000000014001A000800150017001C001800A9
:1001C0000C00120013002F0030002A00390000003C
:1001D00004001600070009000A000B000D000E00C5
:1001E0000F003300340028000000E10000001D0073
:1001F0001B00060019000500110010003600370032
:1002000038000000E1000151E000E3000000E200DE
:10021000000000002C000000000000000000E300CF
:100220000000E700E40000003A003B003C003D0015
:100230003E003F003F0040004100420043004400B8
:1002400045004600000000000000520000000000D1
:10025000000000000000000000000000000000009E
:100260004C0000000000500051004F000000000052
:10027000000000000000000000000000000000007E
:10028000000000000000000000000000C25CC35C31
:10029000A800AA00A900C45C000000000100000042
:1002A000000000000000000000000000000000004E
:1002B00000000000000000000000000000047F3F7C
:1002C0001F643214643214783C1E1E140A0568013F
:1002D000F000B40078005A000000000000010101A5
:1002E00001010101010102020202020202020203F3
:1002F00003030303030303040404040404050505C2
:100300000505060606060607070707080808080980
:1003100009090A0A0A0A0B0B0B0C0C0C0D0D0D0E29
:100320000E0F0F0F101011111112121313141415B8
:100330001516161717181819191A1A1B1C1C1D1D2B
:100340001E1F1F202021222223242525262727287F
:10035000292A2B2B2C2D2E2F2F30313233343536AA
:10036000363738393A3B3C3D3E3F404142434446B4
:100370004748494A4B4C4D4F505152535556575888
:100380005A5B5C5E5F606263646667696A6C6D6E2F
:10039000707173747678797B7C7E808183848688A3
:1003A0008A8B8D8F91929496989A9B9D9FA1A3A5DD
:1003B000A7A9ABADAFB1B3B5B7B9BBBDBFC1C4C6DB
:1003C000C8CACCCFD1D3D6D8DADCDFE1E4E6E8EB9B
:1003D000EDF0F2F5F7FAFCFF0403300000000A0329
:1003E00044005A0036003000000010034B00420069
:1003F0004400460061006E0073000000040309041D
:1004000009023B00020100A0FA09040000010301F7
:1004100001000921110100012240000705810308A4
:10042000000A090401000103000000092111010074
:100430000122C0000705820320000A1201100100FA
:10044000000008EDFE602201000102030105010920
:1004500002A10185020901A100050919012905155B
:10046000002501950575018102950175038101053E
:1004700001093009311581257F950275088106092A
:10048000381581257F950175088106050C0A38020B
:100490001581257F950175088106C0C00501098079
:1004A000A10185031601002603001A81002A83009A
:1004B000751095018100C0050C0901A10185041684
:1004C0000100269C021A01002A9C027510950181E8
:1004D00000C005010906A1018505050719E029E706
:1004E00015002501950875018102050819012905E6
:1004F0009505750191029501750391010507190094
:1005000029EF1500250195F075018102C00501094B
:1005100006A101050719E029E715002501950875D1
:1005200001810295017508810105081901290595C8
:1005300005750191029501750391010507190029BF
:10054000FF150026FF00950675088100C0001124E4
:100550001FBECFEFDAE0DEBFCDBF04B603FE27C07B
:100560008091930290919402A0919502B09196028D
:100570008730904BA740B04BD1F410929302109269
:100580009402109295021092960214BE84B7877F4F
:1005900084BF0FB6F894A89580916000886180931D
:1005A0006000109260000FBEE0E0F8E3099511E0F2
:1005B000A0E0B1E0E0ECFCE502C005900D92A433B0
:1005C000B107D9F722E0A4E3B1E001C01D92A3393D
:1005D000B207E1F70E94DC240C945E2E0C9400001C
:1005E0000C94B708229A2A9A08950E94B6080C948F
:1005F000F20281FF02C02A9801C02A9A0C947E035D
:1006000081E0089581E008950C9402030C94F002B7
:10061000CF92DF92EF92FF92863030F4811105C0C5
:10062000909180009F7D04C085E090918000906251
:1006300090938000282F30E0AFEFBFEF0E94EF2DA6
:1006400025E030E040E050E00E94C72D2C3784E1E7
:1006500038074105510530F4C90169E070E00E9496
:100660009F2D29C0DA01C9018A50974DAF4FBF4F66
:100670006627782F892F9A2F25EF38E241E050E046
:100680000E94C72D69017A01CA01B9010E948F2D0C
:100690009B01AC01C701B6010E948F2DBB27A92F7A
:1006A000982F872F009721E0A207B10511F0BC0118
:1006B00002C06FEF7FEF70938B0060938A00FF9012
:1006C000EF90DF90CF900895269A2E9882E2809343
:1006D000800089E1809381008FEF9FEF90938700E6
:1006E000809386000C945C220E94AA1C811102C097
:1006F0000E942B1D0E9464030C94F50208950C9433
:10070000F90208950E946B160E9481032FEF84E383
:100710009CE0215080409040E1F700C000000C9424
:10072000A21EFF920F931F93CF93DF938C01FC01C6
:10073000C081D18180918101811113C08281882380
:1007400049F0CE010E949D1BF82E682FCE010E9419
:10075000421B04C0CE010E94711BF82EBE018F2DDA
:1007600004C0CE010E949D1BBE010E941306EC0135
:10077000B8010E940403882309F44AC2CC3CFCE57A
:10078000DF0709F4DFC0E8F5C43C9CE5D90709F4AC
:10079000A3C0F8F4C531FCE5DF0778F4C2308CE57E
:1007A000D80708F04EC1C1159CE5D90709F465C00A
:1007B000C130DC4509F469C01EC2C23CFCE5DF075C
:1007C00009F476C008F07CC0C631DC4509F4ECC100
:1007D00012C2F8018281C83CFCE5DF0709F49AC027
:1007E00040F4C63CECE5DE0709F488C008F480C09C
:1007F0008BC0CA3C9CE5D90709F498C008F490C0A6
:100800009BC0C43DFCE5DF0709F4F6C0C0F4F80165
:100810008281C03DFCE5DF0709F4BDC040F4CE3C59
:10082000ECE5DE0709F49BC008F494C0A6C0C23D05
:100830009CE5D90709F4CDC008F4BDC0D8C0C83DB7
:10084000FCE5DF0709F495C150F4F8018281C63D4B
:10085000FCE5DF0709F447C108F4DEC065C1CC3D03
:10086000ECE5DE0709F4E4C0CD3DFCE5DF07C1F0AF
:10087000CB3DDC4509F0BFC1D4C0F801828188239B
:1008800009F4C6C10E948203C3C1F8018281882392
:1008900009F4BEC180911902816080931902B8C128
:1008A000F8018281882309F4B3C10E942B1DB0C1D5
:1008B000F8018281882309F4ABC10E941E0DA8C1F2
:1008C000F8018281882309F4A3C10E946E1C827200
:1008D00061F00E94C30C9CC1F8018281882309F455
:1008E00097C10E946E1C8272A1F30E94B50C90C148
:1008F000882309F48DC10E94B80B8AC1882309F4AA
:1009000087C10E94DC0B84C1882309F481C10E9445
:10091000FC0B7EC1882309F47BC10E941C0C78C1AA
:10092000882309F475C10E943C0C72C1882309F424
:100930006FC10E945C0C6CC1882309F469C10E94DC
:10094000720A66C1F8018281882309F461C10E949C
:10095000870A5EC1882309F45BC181E029C088232E
:1009600009F456C10E94690A823028F00E94690A7F
:10097000853008F4BACF82E01BC0882309F448C14F
:100980000E94690A863028F00E94690A883008F4BB
:10099000ACCF86E00DC0882309F43AC10E94690AF1
:1009A000893028F00E94690A8E3008F49ECF89E0D1
:1009B0000E94C60C2DC1882309F42AC10E94690A2D
:1009C0008F3028F00E94690A843108F48ECF8FE0BE
:1009D000EFCF882309F41CC10E94690A853128F0F1
:1009E0000E94690A873108F480CF85E1E1CF88232E
:1009F00009F40EC188E1DCCFF8018281882309F473
:100A000007C10E94690A893128F00E94690A82326E
:100A100008F46BCF89E1CCCF882309F4F9C083E2D5
:100A2000C7CFF8018281882309F4F2C080E006C0B4
:100A3000F8018281882309F4EBC082E00E947D25C1
:100A4000E7C0F8018281882309F4DAC00E94AA1C59
:100A5000811102C00E942B1D0E94C71C90E0909340
:100A6000840280938302FE01E350FC45E231F105EC
:100A700030F4EA5AFF4F809183020C94E92D809163
:100A80008302816027C0826025C0846023C08061AA
:100A900021C080621FC080641DC080681BC084604C
:100AA000886018C08E7F16C08D7F14C08B7F12C0E7
:100AB0008F7E10C08F7D0EC08F7B0CC08F770AC0D9
:100AC0008B7F877F07C087FB222720F991E0922741
:100AD00090FB87F980938302809183020E94CB1C54
:100AE0000E946B1695C0882351F0109239010E9424
:100AF000461E909336018093350182E020C080919C
:100B0000390181110FC080913501909136010E9409
:100B1000521E883C910530F486E20E94FD1186E267
:100B20000E941B1382E022C0882361F010923A01D8
:100B30000E94461E909338018093370180E20E9404
:100B4000831366C080913A0181110FC080913701F3
:100B5000909138010E94521E883C910530F487E242
:100B60000E94FD1187E20E941B1380E20E948A13FB
:100B70004FC0F80182818111D9CF80913A01811152
:100B8000F4CF80913701909138010E94521E883C29
:100B9000910558F780E20E948A1388E20E94FD11B5
:100BA00088E20E941B1334C00E946E1C282FF8019B
:100BB000828140910D0150910E01882379F02A7AAB
:100BC00091E009F490E090933401911102C069E240
:100BD00001C065E3CA010E94921D0AC080913401E0
:100BE000811102C069E201C065E3CA010E949D1D36
:100BF0000E943B1C0DC081E08093390180933A0133
:100C0000C801DF91CF911F910F91FF900C940003C9
:100C100080E0DF91CF911F910F91FF90089580E0C8
:100C200090E0089508959FE0799FF00111249BE4DE
:100C3000899FE00DF11D1124E60FF11DEE0FFF1F3E
:100C4000E057FE4F859194910895880F991FFC01FC
:100C5000E454FD4F859194910895CF93DF930E94C2
:100C600013060E941608EC01811521E5920708F091
:100C700042C0811530E5930708F026C1883E9105F2
:100C800000F5803E910508F0CDC1883A910570F4D9
:100C9000853A910508F09DC08130910509F4C2C1E3
:100CA00008F473C1049708F0BDC16FC18F3B910573
:100CB00008F49AC0803C910508F467C1805C9109F2
:100CC000F3C0811540E3940780F4811550E2950745
:100CD00008F0E9C0803F910508F457C18F3F9105A6
:100CE00011F008F09FC1D0659DC1811560E49607A1
:100CF00008F0E7C0DDC0C11589E5D80740F5C1158A
:100D000028E5D20708F02DC1C11534E5D30778F4E2
:100D1000C11543E5D40708F009C1C11552E5D5074F
:100D200008F0EEC0DC2FCC27C16FD06A7BC1C115A3
:100D300065E5D60708F410C1C11586E5D80708F0A7
:100D400024C1CF71DD27DC2FCC27D0626BC1CD3B16
:100D50002CE5D20709F410C1D8F4CB3B4CE5D407FD
:100D600009F404C108F005C1C1156AE5D60708F009
:100D70000CC18C2F8F70806E90E0906A24E0D69525
:100D8000C7952A95E1F7CF709C013C2BE9014AC138
:100D9000C03C8CE5D80709F4F5C060F4CE3B3CE5D7
:100DA000D30709F4ECC0CF3BDC4509F0EEC0C0E04E
:100DB000D2ED38C1CE0190568115904208F0E5C0C1
:100DC0008D2F8F710E949308DD27D0628F71D82BF1
:100DD00029C1853A910509F4DBC0863A910509F0ED
:100DE000DAC0C2E8D0E41EC1883A910509F4D6C041
:100DF000893A910509F4D5C08A3A910509F4D4C01D
:100E00008B3A910509F4D3C08C3A910509F4D2C00C
:100E10008B3B910509F4D1C08C3B910509F4D0C0FE
:100E20008D3A910509F4CFC0803B910509F4CEC0FD
:100E30008E3A910509F4CDC08F3A910509F4CCC0E2
:100E4000813B910509F4CBC0823B910509F4CAC0EE
:100E5000833B910509F4C9C0843B910509F4C8C0DE
:100E6000853B910509F4C7C0863B910509F4C6C0CE
:100E7000873B910509F4C5C0883B910509F4C4C0BE
:100E8000893B910509F4C3C08D3B910509F4C2C0AB
:100E90008E3B910509F4C1C08A3B910509F4C0C09D
:100EA000C0E0D4E4BFC09F700E942506EC01BAC028
:100EB0009927D3FF03C0EC01D86CB4C0EC01D06C0F
:100EC000B1C0DF70D06AAEC0282F237081E090E0FF
:100ED00002C0880F991F2A95E2F79C689E0174E072
:100EE000369527957A95E1F72370922BCF70C695AA
:100EF000C69560E2C69FE0011124C82BD92B92C091
:100F00002C2F2695269580E2289F90011124C370EE
:100F1000DD2781E090E0AC0102C0440F551FCA9567
:100F2000E2F7EA01C22BD32BDC687CC02C2F26957C
:100F3000269580E2289F90011124C370DD2781E06F
:100F400090E0AC0102C0440F551FCA95E2F7EA01D8
:100F5000C22BD32BDA6866C0DC2FCC27C46FD06AD3
:100F600061C0DC2FCC27C06FD06A5CC0C0E0D4ED7C
:100F700059C0C0E0D5ED56C0C0E0D1ED53C0C0E0CF
:100F8000D0ED50C0C0E0D3ED4DC0C0E0D0E04AC0CD
:100F9000C1E8D0E447C0C3E8D0E444C0C2EED4E422
:100FA00041C0C9EED4E43EC0CAEED4E43BC0C5EBB8
:100FB000D4E438C0C6EBD4E435C0C3EBD4E432C0CB
:100FC000C4EBD4E42FC0C7EBD4E42CC0CCECD4E405
:100FD00029C0CDECD4E426C0C3E8D5E423C0CAE8D8
:100FE000D5E420C0C2E9D5E41DC0C4E9D5E41AC0E7
:100FF000C1E2D6E417C0C3E2D6E414C0C4E2D6E42A
:1010000011C0C5E2D6E40EC0C6E2D6E40BC0C7E20A
:10101000D6E408C0CFE6D4E405C0C0E7D4E402C0FB
:10102000CAE2D6E4CE01DF91CF91089582389105CE
:1010300049F1B0F48133910509F458C048F489327C
:10104000910509F44EC08A32910509F454C00895FF
:101050008533910509F440C08933910599F00895CD
:10106000833E910529F138F4803E910591F0823E4E
:101070009105A1F00895863E9105F9F0873E91050E
:1010800031F108952091830220FD3AC021FD38C03E
:1010900008958091830280FD35C032C08091830223
:1010A00082FF32C08091830284FD30C083EE39C05C
:1010B0008091830282FD28C0F5CF8091830283FF57
:1010C00027C08091830284FD21C087EE2AC08091D1
:1010D000830283FD1DC0F5CF8091830285FD1AC078
:1010E0001BC08091830285FD17C014C080918302CC
:1010F00086FD14C015C08091830286FD11C00EC00C
:1011000080EE0FC089E30DC082EE0BC080E009C005
:1011100086EE07C089E205C085E303C08AE201C00C
:1011200081E390E008959091830292FF0DC0282FF3
:101130002871283019F4877F846006C0282F247115
:10114000243011F48B7F886093FF0DC0282F287105
:10115000283119F4877E846106C0282F2471243138
:1011600011F48B7E886194FD877E0895089508951B
:10117000EFE2F1E041E050E025E02E0F9191A92F40
:10118000A295AF70B0E091963C9191979F70BA0193
:1011900002C0660F771F9A95E2F7CB0180958323F3
:1011A00091968C932E13EACFA0E2B1E041E050E09B
:1011B0002FE02A0F8D91E82FE295EF70F0E031A13A
:1011C0008F70BA0102C0660F771F8A95E2F7CB01D4
:1011D000962F9095932391A392A1892B82A32A13F2
:1011E000E9CFE5E4F1E0ABE3B1E0119211921D9299
:1011F0001D9271E0EF34F707C1F785E00E94A40962
:101200000C9474034F925F927F928F929F92AF9251
:10121000BF92CF92DF92EF92FF920F931F93CF93E3
:10122000DF932FE2422E21E0522EA5E4B1E020E030
:1012300001E010E05D018D909C90119711961C9239
:101240001E92E20189912E01E82FE295EF70F0E005
:1012500031A18F70A80102C0440F551F8A95E2F793
:10126000CA01342B31A342A1382F3095432342A326
:1012700050EA5A95F1F790E2C92E91E0D92E40E05C
:1012800050E0E60179906E01672D62956F7070E015
:10129000EB01E8A06D917C911197F12CD72DDF70B7
:1012A00002C0F594E794DA95E2F7E0FC08C0780113
:1012B000042E02C0EE0CFF1C0A94E2F702C0E12CDF
:1012C000F12C6E297F2911967C936E934F5F5F4FAF
:1012D0004F305105B1F691A1392331A392A1892B49
:1012E00082A3129681E0F501408151818416950612
:1012F00009F480E0282BF1E0AF34BF0709F09ACF62
:1013000045E06BE371E085E491E00E94A5090E944D
:10131000060381E0DF91CF911F910F91FF90EF9035
:10132000DF90CF90BF90AF909F908F907F905F9015
:101330004F900895E82FF0E0EE0FFF1FE55CFE4FA1
:1013400080819181089508950895FF920F931F93CE
:10135000CF93DF93F82E092F162FD72FC42F2223D8
:1013600049F081E0809351010E94461E9093500104
:1013700080934F01809151018823B9F080914F01F2
:10138000909150010E94521E069778F0EF2DF02F99
:10139000A12FBD2F80E08C1731F0219131912D9339
:1013A0003D938F5FF8CF10925101DF91CF911F9144
:1013B0000F91FF900895EF92FF920F931F93CF9399
:1013C000DF93E901662309F44BC0242F30E0EFEFEF
:1013D000F0E0E61BF109B901E69F9001E79F300DAF
:1013E000F69F300D1124232F8B01031B11095CE3A1
:1013F000E52EF12CB7010E949F2DFB01BC01069F39
:10140000C001079F900D169F900D1124B7010E94F7
:101410009F2DE230F105B1F040F4309779F031972B
:1014200011F5832F242F461B21C0E430F105A1F0D4
:1014300068F03597C1F4842F861B18C0832F262FA0
:10144000230F14C0862F830FE42F03C0E42FE61B65
:10145000842F432F2E2F0AC0842F462F430F06C000
:10146000842F242F03C080E020E040E0E42FF0E050
:10147000E852FD4F4491E22FF0E0E852FD4F949185
:10148000E82FF0E0E852FD4FE49149839883EA8326
:10149000DF91CF911F910F91FF90EF90089588E019
:1014A00090E00C941E2EAB01BC0188E090E00C94FF
:1014B0003C2EE8E4F2E083E08083109249028FEF53
:1014C00082838383148260817181828193810C94F1
:1014D000530A8091480280FF03C086958F73089558
:1014E00080E0089580914C0290E00196843091054F
:1014F00014F083E090E080934C0260914802709178
:10150000490280914A0290914B020C94530A8091B7
:101510004C0290E0019797FF02C080E090E0843099
:10152000910514F083E090E080934C0260914802B2
:101530007091490280914A0290914B020C94530A97
:101540008091480280FF06C060E170E08DE492E087
:101550000C948B1080E090E0FC01E35BFD4F118266
:1015600010821282039680339105B1F7EDCF9091EE
:10157000480290FF0FC020E030E0F901E35BFD4F2F
:101580008183608342832D5F3F4F20333105A9F76C
:101590000C94A00A0895CF93DF9300D01F92CDB78B
:1015A000DEB72091480220FF0AC09E012F5F3F4F07
:1015B0000E94DB094B8169818A810E94B70A0F90E2
:1015C0000F900F90DF91CF9108955F926F927F926D
:1015D0008F929F92AF92BF92CF92DF92EF92FF9243
:1015E0000F931F93CF93DF9300D01F92CDB7DEB739
:1015F0008C01E62EF42E522E8091480280FF8BC083
:10160000982F9E77923061F49E012F5F3F4FC80163
:101610000E94DB094B8169818A810E94B70A5BC005
:10162000E82FE695EF739EE39E0F9F73943018F4B6
:10163000F0904B0250C09AE39E0F9F73993068F46C
:10164000881F8827881F90914902292F220F022F77
:10165000082B97FB112710F93EC087E28E0F8F737E
:101660008A30C8F5F0E07997E0FD02C021E001C0C2
:101670002FEFEE7FE253FD4F85919491AC0184E012
:10168000569547958A95E1F724034001259F900CD4
:101690001124580188E9A81A8EEFB80A9DE4C92ED2
:1016A00092E0D92E28E6622E77247394C501B30107
:1016B0000E949F2D96014F2D6E2D0E94DB09A80CD4
:1016C000B91C83E0C80ED11C8DE7C81682E0D8068D
:1016D00069F70E94A00A8091480200FB87F9809375
:1016E0004802902F9695809149028078892B10FBB3
:1016F00087F980934902E0924A02F0924B0255200A
:1017000051F0609148027091490280914A02909193
:101710004B020E94530A0F900F900F90DF91CF91D0
:101720001F910F91FF90EF90DF90CF90BF90AF90FF
:101730009F908F907F906F905F900895282FE8E49E
:10174000F2E09081991F9927991F30914902832FC8
:10175000880F482F492B37FB552750F9CA010896A7
:1017600068E671E00E94B32D438162810C94E50A22
:1017700081E00C949E0B282F90914802991F992785
:10178000991F30914902832F880F482F492B37FB2F
:10179000552750F9CA01483051051CF4805A9E4F14
:1017A00001C0089768E671E00E94B32D40914B029A
:1017B00060914A020C94E50A81E00C94BB0B6091A5
:1017C0004A02262F30E0283F310514F4685F01C03B
:1017D0006FEF30914802331F3327331F9091490236
:1017E000592F550F97FB992790F9282F40914B02BD
:1017F000852F832B0C94E50A81E00C94DF0B60911C
:101800004A02262F30E02830310514F0685001C01C
:1018100060E030914802331F3327331F9091490213
:10182000592F550F97FB992790F9282F40914B027C
:10183000852F832B0C94E50A81E00C94FF0B4091DB
:101840004B02242F30E0283F310514F4485F01C0DB
:101850004FEF30914802331F3327331F90914902D5
:10186000592F550F97FB992790F9282F60914A021D
:10187000852F832B0C94E50A81E00C941F0C40917A
:101880004B02242F30E02830310514F0485001C0BD
:1018900040E030914802331F3327331F90914902B3
:1018A000592F550F97FB992790F9282F60914A02DD
:1018B000852F832B0C94E50A81E00C943F0C20E0EB
:1018C0000C94E50ACF939091480290FF40C0917824
:1018D000811102C0926007C0853210F0986403C085
:1018E0008F73880F982B90934802662351F0609174
:1018F00048027091490280914A0290914B020E94E5
:10190000530AC09148026C2F66956F7370E04BE0EC
:1019100050E082E091E00E94092E892B19F010928C
:101920006F0103C081E080936F01CC1FCC27CC1FD7
:1019300090914902892F880F97FB992790F9409140
:101940004B0260914A028C2BCF910C945F0CCF918B
:101950000895682F9091480296959F7381E0890FB2
:10196000853208F081E00C94620C81E00C94A90CA3
:10197000682F9091480296959F738FEF890F09F415
:1019800084E20C94620C81E00C94B80C61E00C943D
:10199000620CE8E4F2E080818160808386958F7339
:1019A0000C94C60C60E00C94620C8091190281606A
:1019B000809319020E94AA1C811104C00E942B1D51
:1019C0000E94590A0E944F0A60934802709349028C
:1019D00080934A0290934B026E7761F40E94590AF9
:1019E0000E944F0A609348027093490280934A0212
:1019F00090934B0281E080936F018091480280FFB9
:101A000004C086958F730C94D20C0895E8E4F2E03C
:101A100080818E7F808360817181828193810E9429
:101A2000530A10926F012FEF80E792E0215080401F
:101A30009040E1F700C000000C94A00A8091480299
:101A400080FD0C94060D0C94C90CCF93C82F809187
:101A50006D0190916E010E94521EEC2FF0E0E65352
:101A6000FD4FE491F0E08E179F0708F443C00E94F9
:101A7000461E90936E0180936D0160916C0170E041
:101A800080E090E00E94902B20E030E04FE753E4AC
:101A90000E94B32A2BED3FE049E450E40E94B92CA8
:101AA0000E94262D0E942D2B2BE43AE34EE25FE3A9
:101AB0000E94462A20EF3BEF48ED52E40E94B92CE9
:101AC0000E945F2B462F80914802881F8827881F1D
:101AD00090914902292F220F97FB992790F9609145
:101AE0004A02822B0E94CB0A80916C0190E0019601
:101AF00080936C01CF910895CF93C82F80916A0194
:101B000090916B010E94521EEC2FF0E0E953FD4FC3
:101B1000E491F0E08E179F07E8F00E94461E909334
:101B20006B0180936A0140914B0260914A0280915F
:101B30006801909169010E94CB0A8091680190919F
:101B40006901019668E671E00E949F2D90936901FA
:101B500080936801CF910895CF92DF92FF920F9307
:101B60001F93CF93DF93F82E8091660190916701C8
:101B70000E94521EEF2DE695F0E0EC53FD4FE491EC
:101B8000F0E08E179F07F0F10E94461E90936701C8
:101B9000809366010DE412E0C0E0D0E088E6C82E34
:101BA000DD24D39480916401909165018C0F9D1F79
:101BB000B6010E949F2D980140914B0260914A020C
:101BC0000E94DB0966960D5F1F4FC03681E0D80783
:101BD00049F70E94A00A2091640130916501F0FE4E
:101BE0000BC0C901019668E671E00E949F2D909399
:101BF00065018093640106C021503109309365016D
:101C000020936401DF91CF911F910F91FF90DF909E
:101C1000CF900895AF92BF92CF92DF92EF92FF9252
:101C20000F931F93CF93DF93C82F80FF02C01FEF46
:101C300001C011E080916201909163010E94521EE7
:101C4000C695EC2FF0E0EF53FD4FE491F0E08E17D6
:101C50009F0708F465C00E94461E9093630180931D
:101C600062012DE4C22E22E0D22E3FE4E32E32E0C8
:101C7000F32EC0E0D0E0F70131971082F601108218
:101C8000F701108294E0A92EB12C00E0809161014F
:101C9000800F87FD805F082E000C990BC817D907AD
:101CA000E9F480914B028A9DA0018B9D500D112477
:101CB000559547955595479580914802881F8827E7
:101CC000881F90914902592F550F97FB992790F93A
:101CD000960160914A02852B0E94DB09010FF1E019
:101CE000AF1AB10899F6219683E0C80ED11CE3E043
:101CF000EE0EF11CC031D10509F0BDCF0E94A00A43
:101D000080916101113031F4811102C08FE006C071
:101D1000815004C090E001968F70992780936101F3
:101D2000DF91CF911F910F91FF90EF90DF90CF90B7
:101D3000BF90AF900895EF92FF920F931F93CF93B0
:101D4000DF93C82F80915F01909160010E94521E25
:101D5000EC2FF0E0E254FD4FE491F0E08E179F0786
:101D600008F464C00E94461E9093600180935F0156
:101D700080E090E0FC01E35BFD4F11821082128253
:101D8000039680339105B1F78DE4E82E82E0F82EBA
:101D90000FE412E0C0E0D0E080915E01082E000C5C
:101DA000990BC817D907ECF080910101082E000C9F
:101DB000990B8C179D07ACF080914802881F8827EB
:101DC000881F90914902592F550F97FB992790F939
:101DD000970140914B0260914A02852B0E94DB09DA
:101DE00007C0F80131971082F7011082F8011082C4
:101DF0002196F3E0EF0EF11C0D5F1F4FC031D105AE
:101E000059F60E94A00A8091000190915E01980FFE
:101E100090935E0120910101280F20930101121679
:101E200014F49F301CF0819580930001DF91CF91D5
:101E30001F910F91FF90EF900895EF92FF920F93F3
:101E40001F93CF93DF9380915C0190915D010E947D
:101E5000521E883E9340D0F10E94461E90935D0131
:101E600080935C01C0915A01D0915B012196C170B1
:101E7000DD27D0935B01C0935A018DE4E82E82E008
:101E8000F82E10E008E7812F8695FE01E80FF11D7E
:101E9000CF0181709927970140914B0260914A02CE
:101EA000FC010E9FC0010F9F900D11240E94DB09C1
:101EB0001F5FF3E0EF0EF11C103129F7DF91CF9196
:101EC0001F910F91FF90EF900C94A00ADF91CF919A
:101ED0001F910F91FF90EF900895CF93DF9300D063
:101EE0001F92CDB7DEB780915801909159010E94A1
:101EF000521EECEBF2E02591349182179307C0F16A
:101F00008091570181110CC09E012F5F3F4F4FEF11
:101F10006FEF80E090E00E94DB098A818093570197
:101F20000E94461E9093590180935801809156015A
:101F3000813051F028F0823061F4409157010AC09D
:101F40008091570140E007C06091570140E080E078
:101F500003C040E080E060E00E94B70A8091560133
:101F600090E0019663E070E00E94B32D80935601EB
:101F70000F900F900F90DF91CF9108950F931F93C3
:101F8000CF93DF9380915401909155010E94521E8E
:101F9000843F914008F448C00E94461E909355012A
:101FA00080935401CDE4D2E000E010E02091520192
:101FB00030915301809148029091490208301105F7
:101FC0001CF4232B79F002C0232B61F4881F88278F
:101FD000881F592F550F97FB992790F99E01409123
:101FE0004B020AC0881F8827881F592F550F97FB5F
:101FF000992790F99E0140E060914A02852B0E944A
:10200000DB090F5F1F4F23960031110579F60E94FF
:10201000A00A8091520190915301019681709927F5
:102020009093530180935201DF91CF911F910F91B3
:10203000089580916F018823D9F190914802892FEA
:1020400086958F732EE3280F2F73243018F4825057
:102050000C94250D2AE3280F2F73233018F4865093
:102060000C947C0D27E3280F2F73263018F4895029
:102070000C94AC0D21E3280F2F73263018F48F50E9
:102080000C940A0E2BE2280F2F73233018F485517D
:102090000C949B0E892F8E77803311F40C941D0FB6
:1020A000863411F40C946D0F883411F40C94BE0F27
:1020B00008952EB1342F309523233EB1432B3FB7E3
:1020C000F894FC01680F791FE617F70789F08191F2
:1020D00098E04EB9000000C087FF2EB9880F0000BD
:1020E00000C000C000C02EB900C09A9591F7ECCF97
:1020F0003FBF08952DB1242B2DB99B01220F331F13
:10210000620F731F0E94591087EC90E00197F1F75E
:1021100000C00000089544E00C947A10909375017B
:10212000809374010895E0917401F09175013097E6
:1021300021F00190F081E02D099480E00895E09174
:102140007401F0917501309799F020911F012223BD
:1021500059F02091830227FF07C0DC012C911196D2
:102160002C93119725E02C930280F381E02D0994A4
:102170000895E0917401F0917501309739F022E0F3
:10218000DC012C930480F581E02D099408952091C1
:102190007201309173018217930771F0909373016C
:1021A00080937201E0917401F0917501309721F0F4
:1021B0000680F781E02D09940895209170013091F7
:1021C00071018217930771F09093710180937001F0
:1021D000E0917401F0917501309721F00084F18550
:1021E000E02D0994089585B7806885BF85B780681C
:1021F00085BF089508950E94F3100C94FA1081E0B1
:1022000008950E943D1E0E94B8080E94121F0E945D
:102210005C220C94D50C4F925F927F928F929F928A
:10222000AF92BF92CF92DF92EF92FF920F931F93E4
:10223000CF93DF93CDB7DEB72A970FB6F894DEBF02
:102240000FBECDBF0E9402090E94FF10811111C074
:102250008FEF89838A831B820E94461E8160782FBC
:102260009D838C8349815A816B818D810E94C91124
:1022700057C097E7C92E91E0D92E00E010E0AA24BC
:10228000A394B12C702E802F0E949A094C01F60164
:10229000419051906F01482659264114510431F460
:1022A0000F5F1F4F0530110569F7D2CF80911902DA
:1022B00081FD0E94A30920E030E07501022E02C0DA
:1022C000EE0CFF1C0A94E2F7C70184219521892BAB
:1022D00009F12E837F828E209F2091E0892809F4C6
:1022E00090E098870E94461E8160782F9A878987A0
:1022F0004E815F8168858A850E94C911000F111F78
:10230000F801E958FE4F80819181E826F926F18293
:10231000E08206C02F5F3F4F2F30310571F6C0CFEE
:102320000E94B521109176010E9493101817D9F0E0
:102330000E949310809376012A960FB6F894DEBF20
:102340000FBECDBFDF91CF911F910F91FF90EF9006
:10235000DF90CF90BF90AF909F908F907F905F90D5
:102360004F900C947F032A960FB6F894DEBF0FBEF1
:10237000CDBFDF91CF911F910F91FF90EF90DF9034
:10238000CF90BF90AF909F908F907F905F904F9035
:102390000895CF93DF93CDB7DEB72B970FB6F894A0
:1023A000DEBF0FBECDBF4F83588769877A878B8783
:1023B000DE01119686E0FD0111928A95E9F785E02C
:1023C000FE01379601900D928A95E1F749815A8175
:1023D0006B817C818D819E810E9412192B960FB694
:1023E000F894DEBF0FBECDBFDF91CF910895FC0101
:1023F000808191810E94DC1B0895882309F41AC111
:102400008238C1F40E94931081FD14C169E3809168
:102410000D0190910E010E94921D0E943B1C2FEF16
:1024200081EE94E0215080409040E1F700C0000030
:1024300069E319C08338F9F40E94931080FDFAC053
:1024400063E580910D0190910E010E94921D0E9402
:102450003B1C2FEF81EE94E0215080409040E1F74B
:1024600000C0000063E580910D0190910E010E9473
:102470009D1D0C943B1C8438C1F40E94931082FD76
:10248000D9C067E480910D0190910E010E94921DC8
:102490000E943B1C2FEF81EE94E021508040904041
:1024A000E1F700C0000067E4DECF9CEF980F913A9F
:1024B00040F4682F80910D0190910E010E94921DB1
:1024C000D8CF90E2980F983050F4877091E001C017
:1024D000990F8A95EAF7892F0E94711CCACF9BE554
:1024E000980F933070F4853A29F0863A31F083E8FA
:1024F00090E005C081E890E002C082E890E00C9492
:10250000C71098E5980F973108F08EC0883A09F403
:1025100045C0893A09F445C08A3A09F445C08B3A66
:1025200009F445C08C3A09F445C08B3B09F445C019
:102530008C3B09F445C08D3A09F445C0803B09F451
:1025400045C08E3A09F445C08F3A09F445C0813B35
:1025500009F445C0823B09F445C0833B09F445C0FA
:10256000843B09F445C0853B09F445C0863B09F42A
:1025700045C0873B09F445C0883B09F445C0893B09
:1025800009F445C08D3B09F445C08E3B09F445C0B4
:102590008A3B09F445C080E090E044C082EE90E0C0
:1025A00041C089EE90E03EC08AEE90E03BC085EBF2
:1025B00090E038C086EB90E035C083EB90E032C00D
:1025C00084EB90E02FC087EB90E02CC08CEC90E087
:1025D00029C08DEC90E026C083E891E023C08AE812
:1025E00091E020C082E991E01DC084E991E01AC029
:1025F00081E292E017C083E292E014C084E292E0AC
:1026000011C085E292E00EC086E292E00BC087E244
:1026100092E008C08FE690E005C080E790E002C03D
:102620008AE292E00C94DD10803F20F00E94BD20F1
:102630000C94AA210895882309F464C0823879F49F
:102640000E94931081FF5EC069E380910D0190911B
:102650000E010E94921D0E943B1C69E310C083384A
:10266000B1F40E94931080FF4DC063E580910D018D
:1026700090910E010E94921D0E943B1C63E5809187
:102680000D0190910E010E949D1D0C943B1C8438FD
:1026900079F40E94931082FF35C067E480910D01A8
:1026A00090910E010E94921D0E943B1C67E4E7CFAF
:1026B0009CEF980F913A10F4682FE1CF90E2980FB9
:1026C000983050F4877091E001C0990F8A95EAF72D
:1026D000892F0E94771CD9CF9BE5980F933020F467
:1026E00080E090E00C94C71098E5980F973120F4A3
:1026F00080E090E00C94DD10803F20F00E942521C6
:102700000C94AA210895882321F00E94711C0C9436
:102710003B1C0895882321F00E94771C0C943B1CDD
:1027200008954F925F926F927F92BF92CF92DF9205
:10273000EF92FF920F931F93CF93DF937C01D62FDD
:10274000C72FFC01058102950F70128111110E94A3
:102750008E1C0E94341C882379F0112369F080E2DA
:102760008D0F883048F082E00E941D1C0E94341CAE
:1027700091E0B82EB92601C0B12CCC2EC2948FE0C6
:10278000C822D12CF601E859FF4F0C94E92D8C2F6B
:10279000807FCF70882311F0C295C07F112399F0FC
:1027A000CC2309F4D0C180E28D0F883010F0D11114
:1027B00004C08C2F0E94711C03C08C2F0E94811CAE
:1027C0000E943B1CC0C18D2F0E941B13CC2309F417
:1027D00003C280E28D0F883010F0D11104C08C2F1D
:1027E0000E94771C03C08C2F0E94871C0E943B1CF8
:1027F000F3C18C2F807FCF70803211F0C295C07FE3
:10280000DD2319F0D130C9F022C0112371F000236B
:1028100041F0013031F40E94A71C8C2B0E94A11CB6
:10282000DBC10E94A71C8C2B46C1002319F001308C
:1028300009F4D2C10E94A41C18C0112321F0063053
:1028400008F0CAC10EC0053008F0C6C10EC0112381
:1028500051F0002331F0F701858180FF74C18F7042
:1028600085838C2F28C101117FC18C2F2AC18C2F09
:1028700086958695837090E0009719F0019761F036
:10288000ABC1112321F08D2F9C2F937002C080E0EB
:1028900090E00E94C710B0C1112321F08D2F9C2F12
:1028A000937002C080E090E00E94DD10A5C111236A
:1028B000F9F0D53F51F0D63F71F0D43FA9F48091A3
:1028C0007D0290917E0281600BC080917D0290918B
:1028D0007E02826005C080917D0290917E028460BC
:1028E00090937E0280937D028D2F0E94BD201EC09A
:1028F000D53F51F0D63F71F0D43FA9F480917D02CD
:1029000090917E028E7F0BC080917D0290917E021D
:102910008D7F05C080917D0290917E028B7F909388
:102920007E0280937D028D2F0E9425210E94AA2184
:1029300063C18C2F837009F050C0111159C18D2FC4
:10294000829586958770880F880F9D2F9F70492EDE
:10295000512C612C712C082E04C0440C551C661C93
:10296000771C0A94D2F7D4FF14C00FE010E020E0E7
:1029700030E0B901A80104C0440F551F661F771F3E
:102980008A95D2F7CB01BA016095709580959095A4
:1029900003C060E070E0CB01C695C695C370D0E07F
:1029A000C230D10561F0C330D10581F064297529A9
:1029B00086299729219771F00E94571A19C1642915
:1029C0007529862997290E94691A12C10E94571AEF
:1029D000C301B2010E94451A0BC1112319F08C2FBB
:1029E000817001C08695882309F402C18D2F8295DC
:1029F00086958770880F880F9D2F9F70492E512CC8
:102A0000612C712C082E04C0440C551C661C771CCC
:102A10000A94D2F7D4FF14C00FE010E020E030E0B9
:102A2000B901A80104C0440F551F661F771F8A957E
:102A3000D2F7CB01BA01609570958095909503C04F
:102A400060E070E0CB01C695C695C3704C2F50E096
:102A50004230510569F04330510589F064297529E8
:102A6000862997294130510571F00E941D1BC0C075
:102A700064297529862997290E942F1BB9C00E94B5
:102A80001D1BC301B2010E940B1BB2C08D2F90E031
:102A9000FC01E05EF109E531F10508F050C0E858AD
:102AA000FF4F0C94E92DDF708C2F8F71112331F0C3
:102AB0000E94A41A8D2F0E9483138EC00E94C51AF3
:102AC0008D2F0E948A1388C0112341F0053008F031
:102AD00083C08C2F8F710E94EA1A7EC0063008F0E6
:102AE0007BC0F7CF112339F08C2F8F710E94A41A6D
:102AF00073C01123C9F38C2F8F710E94C51A6CC04B
:102B0000112329F08C2F8F710E948F1A65C00E94AB
:102B10008A1A62C0112349F0CF718C2F0E94A41A27
:102B200063E08C2F0E94141C57C081E00E941D1C82
:102B3000023008F451C082E00E941D1C4DC01123D8
:102B400031F0002389F28D2F0E94FD1145C0002332
:102B500091F2D93349F45FEF67EE73E05150604072
:102B60007040E1F700C000008D2F0E941B1334C09D
:102B70004C2F4F706D2FC7010E940F060E94B6198F
:102B80003BC0111139C0CF70D0E0C230D10599F0EF
:102B90003CF4209769F02197F9F40E9496222CC00A
:102BA000C430D10571F054F02597B1F480E00AC02B
:102BB0000E94792221C00E94D5221EC00E94DC22E0
:102BC0001BC085E00E94FF2217C04C2F4F706D2F55
:102BD000C7010E94120610C088E0C816D10441F057
:102BE0005CF0EAE0CE1AD108F2E0CF16D10420F46E
:102BF0000E9493100E947F03BB20F1F00E94101CE2
:102C000080FD1AC0F70112820E940A1C0E94A41AB9
:102C1000C7010E942A160E940A1CDF91CF911F91C2
:102C20000F91FF90EF90DF90CF90BF907F906F90CB
:102C30005F904F900C94C51ADF91CF911F910F9127
:102C4000FF90EF90DF90CF90BF907F906F905F905C
:102C50004F9008950F931F93CF93DF93EC018881DA
:102C600099812B813C81232BB9F09F3F11F48F3F39
:102C700099F0CE010E949103882371F068817981D7
:102C80008A810E94E71B8C010E94411B0E94421A0C
:102C9000B801CE010E949113DF91CF911F910F9146
:102CA00008950E948E1C0E949E1C0E943B1C0E9444
:102CB00050220E94AA2180E090E00E94C71080E08C
:102CC00090E00C94DD1080910D0190910E010E9416
:102CD000A81D0C9451160E947E1C0C9463160E9431
:102CE000DC1BE92FE295EF70F0E03297EE30F10552
:102CF000B0F4E357FF4F0C94E92D803F91F018F4A6
:102D0000803E68F40EC0843F51F40BC0803E48F012
:102D1000813F29F406C093FB882780F9089580E05D
:102D2000089581E00895CF93DF9300D000D01F92E3
:102D3000CDB7DEB70F900F900F900F900F90DF91EF
:102D4000CF910895CF93DF9300D000D000D0CDB7BE
:102D5000DEB726960FB6F894DEBF0FBECDBFDF916B
:102D6000CF9108951F93CF93DF93C091820116E016
:102D700080918301C81799F0D0E01C9FF0011D9F3E
:102D8000F00D1124EC57FE4F408151816281738117
:102D9000848195810E94A2162196C770E9CFDF91A8
:102DA000CF911F9108954091B4015091B501609168
:102DB000B6017091B7018091B8019091B9010C945E
:102DC000A2168091B90182958F7009F054C080914C
:102DD000B601882309F44FC080918201A09183013C
:102DE0006091B4017091B5014091B7015091B80163
:102DF000B6E08A1709F43FC090E041155105C1F1D2
:102E00007F3F11F46F3FA1F1B89FF001B99FF00D22
:102E10001124EC57FE4F218172132AC020816213C6
:102E200027C02281211124C0238134812417350732
:102E300010F421503109241B350B283C3105C0F416
:102E40002091B9012F7020612093B90126E0289FBD
:102E5000F001299FF00D1124E757FE4F80818F70FC
:102E60008061808384EB91E00E942A160C94B21654
:102E700001968770BECF0895CF92DF92EF92FF92B6
:102E80000F931F93CF93DF93CDB7DEB762970FB643
:102E9000F894DEBF0FBECDBF8C0185E0F801DE01E6
:102EA0001D9601900D928A95E1F7D8014C911196EB
:102EB0005C91119712966C9112971396CD90DC90BD
:102EC00014973091B4017091B5018091B701909140
:102ED000B801009709F46BC17F3F19F43F3F09F433
:102EE00066C1E090B601EE2009F4C0C02091B9019E
:102EF000C816D90628F0F601E81BF90BCF0104C06B
:102F0000809590958C0D9D1DFF24F394883C910530
:102F100078F0F12C207F09F0C6C07C2DD98AC88AB0
:102F200089890E94931684EB91E00E942A16B1C011
:102F3000822F807F09F046C0751314C0341312C06D
:102F4000611110C02F7020612093B9010E94D31627
:102F500084EB91E00E942A168091B901D801159660
:102F60008C932EC0CD2819F15F3F11F44F3FF9F03B
:102F7000F62E61111CC0809182012091830136E000
:102F8000821709F45AC090E0389FF001399FF00D84
:102F90001124EC57FE4F7181571306C070814713FF
:102FA00003C07281711103C001968770E9CFF62EBC
:102FB000662309F427C18091B90181608093B9012A
:102FC000F12C20C1751308C0341306C0611104C070
:102FD0008091B901D801C3C04D875E878D859E85DC
:102FE0006A8B0E946F166A898823E1F16623D1F10A
:102FF0002091B901822F82958F7090E0029774F032
:103000008091B4019091B50198878F831986DB86F2
:10301000CA862C87CE0107960E942A1686E0F80100
:10302000A4EBB1E001900D928A95E1F70E94E116C0
:103030000E94D316FF24F394E5C04D875E878D85EB
:103040009E850E94DC1B292F22952F7030E02230B4
:1030500031050CF0CBC09F7009F0C5C0805E883090
:1030600008F4D0C0C8010E942A16E4CFC816D906B9
:1030700008F453C0F601E81BF90BCF01883C910519
:1030800008F450C0F12C7C2DD98AC88A89890E9405
:103090009316E4EBF1E086E0DF011D928A95E9F7F3
:1030A0000E94D316AFC0751314C0341312C061113F
:1030B00010C08091B901F8018583C8010E942A16C9
:1030C00086E0E4EBF1E0DF011D928A95E9F7FE2C42
:1030D00099C04D875E878D859E856A8B0E946F168D
:1030E0006A89882309F4BECF662309F4BBCF2091F7
:1030F000B901822F82958F7090E002970CF48ECFE9
:103100008091B4019091B5019A8389831B82DD82FD
:10311000CC822E83CE0101967FCF809590958C0D29
:103120009D1DACCFF62E662309F49CCF75132EC0DF
:1031300034132CC02091B90120FD1FC0822F82952D
:103140008F70D9F0D80115962C9315978F3049F0D0
:103150008F5F982F9295907F822F8F70892B159675
:103160008C93C8010E942A1686E0F801A4EBB1E016
:1031700001900D928A95E1F793CF86E0F801A4EBD8
:10318000B1E001900D928A95E1F73CC04D875E87D2
:103190008D859E850E946F16811140CF8091B90167
:1031A00081608093B901C8010E942A162BC0662352
:1031B00009F458CF4D875E878D859E850E946F16D6
:1031C000F82E882309F44ECF86E0F801A4EBB1E095
:1031D00001900D928A95E1F784EB91E00E94F7113E
:1031E0000E94E1165DCF811139CF0CC0243031052A
:1031F0000CF038CF9F7009F431CFF8019581907FA2
:1032000009F02CCF8F2D62960FB6F894DEBF0FBE5B
:10321000CDBFDF91CF911F910F91FF90EF90DF9085
:10322000CF9008951F93CF93DF93CDB7DEB72C9740
:103230000FB6F894DEBF0FBECDBF4F8358876987A6
:103240007A878B879C87CE0107960E943C1788233C
:1032500069F08F8198852A853B85232BF1F19F3F6B
:1032600009F063C08F3F09F060C037C086E0FE01FF
:103270003796DE01119601900D928A95E1F76F81E4
:103280007885EA85FB85309741F17F3F11F46F3FE8
:1032900021F12091830130E0C901019687709927BF
:1032A0004091820150E08417950709F447C0698373
:1032B0007A83FD83EC8396E0929FD001939FB00DBB
:1032C0001124AC57BE4FFE01319601900D929A9594
:1032D000E1F7809383010E94B21616E0809182018B
:1032E000909183018917C1F1189FC00111248C5757
:1032F0009E4F0E943C17882379F1E09182011E9F26
:10330000F0011124EC57FE4F40815181628173819D
:10331000848195810E94A2168091820190E001969D
:103320008770992780938201D9CF4F81588569850D
:103330007A858B859C850E94A216CFCF0E946B1642
:103340001092830110928201E4EBF1E086E0DF014C
:103350001D928A95E9F7C1CF2C960FB6F894DEBF7F
:103360000FBECDBFDF91CF911F910895EF92FF92D5
:103370000F931F93CF93DF938C01892B09F46CC0BB
:10338000F12CEE24E394E8012196F801849184372E
:1033900040F4843008F051C0813081F0823019F15E
:1033A0005BC0853709F444C0A8F19CE7980F9037BB
:1033B00008F052C08F770E941B1341C00E5F1F4F51
:1033C000FE01C49180E28C0F883048F4C7708E2DC6
:1033D00001C0880FCA95EAF70E94911C14C08C2F77
:1033E0000E94FD112DC00E5F1F4FFE01C49180E2AF
:1033F0008C0F883058F4C7708E2D01C0880FCA9585
:10340000EAF70E94971C0E943B1C1AC08C2F0E9456
:103410001B1316C00E5F1F4FFE01C491CC2381F019
:103420008FE99FE00197F1F700C00000C150F6CF8F
:103430000E5F1F4FFE01F49003C00E94FD118E012C
:103440008F2D882309F49FCFEFE9FFE03197F1F743
:1034500000C000008150F5CFDF91CF911F910F91F7
:10346000FF90EF90089508950C94331A0E94341A37
:103470006093F0017093F1018093F2019093F30156
:103480000C94511608950C94361A0F931F930091C3
:10349000F0011091F1012091F2013091F301602BC4
:1034A000712B822B932B1F910F910C94361A0F9333
:1034B0001F930091F0011091F1012091F2013091E0
:1034C000F30160237123822393231F910F910C94A6
:1034D000361A0F931F930091F0011091F101209182
:1034E000F2013091F30160277127822793271F9102
:1034F0000F910C94361A08950C947B1A0E947C1A32
:103500006093EC017093ED018093EE019093EF01D5
:103510000C94511660E070E0CB010C947E1A0F936E
:103520001F9341E050E060E070E08A019B0104C01D
:10353000000F111F221F331F8A95D2F7C901B8014E
:103540001F910F910C947E1A0F931F9341E050E04E
:1035500060E070E004C0440F551F661F771F8A9516
:10356000D2F78091EC019091ED01A091EE01B09124
:10357000EF018A019B01082B192B2A2B3B2BC90138
:10358000B8011F910F910C947E1A0F931F9341E085
:1035900050E060E070E004C0440F551F661F771FC5
:1035A0008A95D2F740955095609570958091EC0181
:1035B0009091ED01A091EE01B091EF018A019B0184
:1035C000082319232A233B23C901B8011F910F9116
:1035D0000C947E1A0F931F9341E050E060E070E07E
:1035E00004C0440F551F661F771F8A95D2F780913C
:1035F000EC019091ED01A091EE01B091EF018A01F3
:103600009B01082719272A273B27C901B8011F91C9
:103610000F910C947E1A0F931F930091EC0110915F
:10362000ED012091EE013091EF01602B712B822B87
:10363000932B1F910F910C947E1A0F931F9300915F
:10364000EC011091ED012091EE013091EF0160232A
:103650007123822393231F910F910C947E1A0F9351
:103660001F930091EC011091ED012091EE0130913A
:10367000EF0160277127822793271F910F910C94E8
:103680007E1A08952FE0929F800D1124A82FA695F1
:10369000A695A695877051E001C0550F8A95EAF767
:1036A00085E0A89FD001112420E030E070E0F9010E
:1036B000EA0FFB1FE654FE4F4081CB01022E02C0F1
:1036C000969587950A94E2F78170992781958427CA
:1036D0008523842780832F5F3F4F2530310539F7BD
:1036E00008952FE0929F800D1124682F66956695AE
:1036F0006695982F977085E0689FB001112440E08F
:1037000050E080E0FA01E60FF71FE654FE4F2081FB
:1037100030E0092E02C0369527950A94E2F7217011
:103720003327042E01C0220F0A94EAF7822B4F5F41
:103730005F4F4530510531F70895CF92DF92EF92F8
:10374000FF920F931F93CF93DF938C01C090F001F2
:10375000D090F101E090F201F090F3018091EC0142
:103760009091ED01A091EE01B091EF01C82AD92A04
:10377000EA2AFB2ACFE1D0E0D701C6010C2E04C013
:10378000B695A795979587950A94D2F780FF06C0BE
:10379000B8018C2F0E942D06019721F4219760F724
:1037A00080E001C08C2FDF91CF911F910F91FF908E
:1037B000EF90DF90CF900895CF93DF93EC010E94BC
:1037C0009D1BBE010E942D06DF91CF9108951F938E
:1037D000CF93DF93EB0190918101992321F0CB01ED
:1037E0000E94DC1B13C0882349F0CB010E949D1B63
:1037F000182F682FCE010E94421B04C0CB010E94EB
:10380000711B182FBE01812F0E942D06DF91CF91D1
:103810001F9108958091F40185958595859508956A
:103820008091F4018770089598E0899F9001112498
:10383000262B2093F4010C94A41A2091F401809576
:1038400082238093F401982F977069F430E0482F19
:10385000082E000C550B2417350729F08595859502
:1038600085950C94C51A08959091F401977081E0A4
:1038700009F480E00895E0910D01F0910E0180912E
:1038800018028083E0910D01F0910E0190818091EA
:103890001702892B8083E0910D01F0910E01908138
:1038A00080911602892B80838091F501882381F015
:1038B000E0910D01F0910E019081892B8083809120
:1038C0000D0190910E010E942D1D81111092F501A4
:1038D00080910D0190910E010C949F10809118021F
:1038E000089590911802892B80931802089580956D
:1038F000909118028923809318020895109218025B
:10390000089590911702892B80931702089580954E
:10391000909117028923809317020895109217023D
:10392000089590911602892B809316020895809530
:103930009091160289238093160208951092160220
:1039400008958093F50108951092F50108958091EE
:10395000F501089580E090E00E94242E21E08D3E44
:103960009E4F09F020E0822F089582E090E00C94B1
:10397000162E682F82E090E00C942A2E83E090E0CF
:103980000C94162E682F83E090E00C942A2E84E08D
:1039900090E00C94162E682F84E090E00C942A2E70
:1039A00086E090E00C94162E682F86E090E00C9450
:1039B0002A2EAB01BC018FE090E00C943C2EAB01B1
:1039C000BC0183E190E00C943C2E60E070E0CB0100
:1039D0000C94DF1C60E070E0CB010E94D91C0C94B9
:1039E000E51C6DEE7EEF80E090E00E94482E60E0E6
:1039F00082E090E00E942A2E60E083E090E00E9446
:103A00002A2E1092F0011092F1011092F201109200
:103A1000F30160E084E090E00E942A2E60E085E0FF
:103A200090E00E942A2E60E086E090E00E942A2E1C
:103A30006FEF87E090E00E942A2E40E050E0BA014C
:103A400088E090E00E943C2E60E08DE090E00E94D3
:103A50002A2E0C94EA1C0C94F11CFC0132968091E5
:103A60001F01882331F08091830287FF02C09EE10D
:103A700001C096E080E0915028F021912223D9F3F3
:103A80008F5FF9CF08959C01FC0132969FEF80E093
:103A90004191461789F09F3F19F4411101C0982FB9
:103AA0008F5F8630A9F79F3F39F0F901E90FF11DCB
:103AB00097FDFA95628308950895FC013296089661
:103AC0002081261301C010823196E817F907C1F74B
:103AD0000895262F2695269526952E3168F4FC010B
:103AE000E20FF11D677021E030E001C0220F6A95FE
:103AF000EAF78281282B22830895262F2695269582
:103B000026952E3170F4FC01E20FF11D677021E063
:103B100030E001C0220F6A95EAF7209582812823C0
:103B20002283089520911F01222329F020918302EE
:103B300027FD0C94691D0C94431D20911F01222325
:103B400029F02091830227FD0C947D1D0C945D1DAE
:103B500020911F01FC013296222331F080918302D3
:103B600087FF02C08EE101C086E0DF011D928A95C9
:103B7000E9F7089508950C94BA1D0E94BB1D809129
:103B80008A02843061F110921A0220E488E190E008
:103B90000FB6F894A895809360000FBE2093600044
:103BA00080E00E94080380E00E947F030E94BB1D0A
:103BB00083B7817F846083BF83B7816083BF78943C
:103BC000889583B78E7F83BF0FB6F894A8958091B0
:103BD0006000886180936000109260000FBE0895BD
:103BE00008950895CF930E94F01D0E9402090E943B
:103BF000F11DC0E08C2F0E949A09892B29F4CF5F18
:103C0000C530C1F780E001C081E0CF9108950895EB
:103C10000C94071E0E946B160E945C220E94931057
:103C20000E947F030C94081E1F920F920FB60F92F2
:103C300011248F939F93AF93BF9380911A028111A8
:103C400013C080917F0290918002A0918102B09177
:103C500082024196A11DB11D80937F029093800244
:103C6000A0938102B0938202BF91AF919F918F91F7
:103C70000F900FBE0F901F90189582E084BD93E0C7
:103C800095BD9AEF97BD80936E0008952FB7F89475
:103C900080917F0290918002A0918102B091820276
:103CA0002FBF0895CF92DF92EF92FF920F931F9351
:103CB0002FB7F89440917F02509180026091810269
:103CC000709182022FBF6A017B01EE24FF248C01D8
:103CD00020E030E0C016D106E206F30610F44150B1
:103CE00051099A01281B390BC9011F910F91FF90AF
:103CF000EF90DF90CF90089578941F920F920FB6B7
:103D00000F9211248F939F93AF93BF9380917F0263
:103D100090918002A0918102B09182020196A11D32
:103D2000B11D80937F0290938002A0938102B09393
:103D30008202BF91AF919F918F910F900FBE0F9014
:103D40001F90189581E08093E00080E28093D80076
:103D50001092C9008FE19EE40197F1F700C00000C6
:103D600087E090EBDC018093930290939402A09300
:103D70009502B09396029CE088E10FB6F894A8955E
:103D8000809360000FBE90936000FFCFAF92BF9210
:103D9000CF92DF92EF92FF920F931F93CF93C0E0E9
:103DA000CC24C394D12CE82EF12C8C2F0E949A099C
:103DB0005C0100E010E09601002E02C0220F331FCC
:103DC0000A94E2F72A213B21232B31F40F5F1F4F86
:103DD0000F30110581F70AC0602F7C2F80E00E9410
:103DE0001306E816F90691F781E004C0CF5FC530ED
:103DF000E1F680E0CF911F910F91FF90EF90DF905F
:103E0000CF90BF90AF900895CF93C82F8CE20E94BF
:103E1000C61E882321F08C2FCF910C94C61E80E003
:103E2000CF910895CF930E94AA1C811102C00E94D5
:103E30002B1DC5E6C15049F00E9402098FE39CE9A1
:103E40000197F1F700C00000F5CF89E20E94041F3E
:103E500081110FC18AE20E94041F81110E942B1D53
:103E600085E00E94041F81110E94A21E0E94B51CC1
:103E70008093190287E00E94041F8823A9F18BE137
:103E80000E94041F882351F08091190281FB222790
:103E900020F991E0922790FB81F90EC08EE00E94FC
:103EA000041F882361F08091190282FB222720F9E8
:103EB00091E0922790FB82F98093190215C080E16E
:103EC0000E94041F90911902882341F093FB22273E
:103ED00020F981E0822780FB93F904C0892F809527
:103EE00080FB90F990931902809119020E94B91CED
:103EF0000E94C71C90E0909384028093830280EE1E
:103F00000E94041F882341F080918302982F90958E
:103F100090FB80F98093830289E30E94041F882329
:103F200059F08091830281FB222720F991E09227AA
:103F300090FB81F98093830282EE0E94041F882304
:103F400059F08091830282FB222720F991E0922789
:103F500090FB82F98093830286EE0E94041F8823DF
:103F600059F08091830283FB222720F991E0922768
:103F700090FB83F98093830283EE0E94041F8823C1
:103F800059F08091830284FB222720F991E0922747
:103F900090FB84F98093830285E30E94041F8823A9
:103FA00059F08091830285FB222720F991E0922726
:103FB00090FB85F98093830281E30E94041F88238C
:103FC00059F08091830286FB222720F991E0922705
:103FD00090FB86F98093830281E10E94041F88236D
:103FE00059F08091830287FB222720F991E09227E4
:103FF00090FB87F980938302809183020E94CB1CFF
:1040000087E20E94041FC82F8EE10E94041F8111C5
:10401000C2608FE10E94041F8111C46080E20E948F
:10402000041F8111C86081E20E94041F8111C061D8
:1040300082E20E94041F8111C06283E20E94041F79
:104040008111C06484E20E94041F882311F0C068BB
:1040500002C0CC2329F08C2F0E94C21C6C2F03C0FD
:104060000E94BE1C682F70E080E090E0CF910C941D
:10407000431ACF91089580911D0280FF0BC060917B
:10408000120185E0689FB0011124759567957595BB
:1040900067952BC081FF09C06091120185E0689F80
:1040A000B00111247595679520C082FF07C060910B
:1040B000120185E0689FB001112417C090911E0283
:1040C0009923D1F060911101961788F72091120180
:1040D00085E0289F90011124929FA001939F500D8D
:1040E000112470E0CA010E94B32D6038710540F4BC
:1040F0006115710539F002C065E070E0862F089502
:104100008FE7089581E0089580911D0280FF08C027
:104110006091100170E0759567957595679521C060
:1041200081FF06C06091100170E07595679519C018
:1041300082FF04C06091100170E010C090911E02D7
:104140009923C1F060910F019617A0F7809110019B
:10415000899FC001112470E00E94B32D6038710561
:1041600028F46115710521F0862F08958FE70895D1
:1041700081E0089561E070E0F4CF803F21F40E9477
:104180003B20819504C0813F29F40E943B2080930D
:1041900022020895823F21F40E943B20819504C0B1
:1041A000833F29F40E943B20809321020895893F98
:1041B00019F40E94842005C08A3F31F40E948420B3
:1041C00081958093230208958B3F21F40E948420DF
:1041D000819504C08C3F29F40E948420809324029E
:1041E0000895843F21F480912002816017C0853FAB
:1041F00021F480912002826011C0863F21F48091D9
:10420000200284600BC0873F21F4809120028860E7
:1042100005C0883F31F480912002806180932002A4
:1042200008958D3F21F480911D0281600BC08E3F67
:1042300021F480911D02826005C08F3F29F4809196
:104240001D02846080931D020895803F39F480919F
:10425000220287FF6CC01092220269C0813F29F4BC
:10426000809122021816BCF362C090912102823F15
:1042700029F497FF5CC01092210259C0833F19F4C2
:104280001916CCF354C0893F41F4809123021816CB
:104290000CF04DC0109223024AC08A3F29F480914D
:1042A000230287FF44C0F6CF8B3F39F4809124026C
:1042B00087FF3DC0109224023AC08C3F29F48091C0
:1042C00024021816BCF333C0843F21F480912002ED
:1042D0008E7F17C0853F21F4809120028D7F11C011
:1042E000863F21F4809120028B7F0BC0873F21F411
:1042F00080912002877F05C0883F31F480912002A1
:104300008F7E8093200213C08D3F21F480911D0287
:104310008E7F0BC08E3F21F480911D028D7F05C0E2
:104320008F3F29F480911D028B7F80931D02809125
:10433000210281110EC08091220281110AC0809158
:104340002302811106C080912402811102C01092C3
:104350001E0208958FE192E00E94B9100E94461E4D
:1043600090931C0280931B0208951F93CF93DF93B9
:1043700080911B0290911C020E94521EAC019091F0
:104380001E02992321F02091130130E006C02091F4
:1043900014018AE0289F900111244217530708F462
:1043A0007BC080912102C0912202D0912302109102
:1043B0002402811107C0C1116BC0D11169C0111154
:1043C00067C06AC09F3F19F09F5F90931E02181646
:1043D00024F40E943B20809321028091210287FFD8
:1043E00005C00E943B208195809321021C1624F475
:1043F0000E943B20809322028091220287FF05C009
:104400000E943B2081958093220230912102332328
:10441000E1F0209122022223C1F045EB3403C001D8
:104420001124892F990F990B009709F481E080934B
:10443000210235EB2303C0011124892F990F990B19
:10444000009709F481E0809322021D1624F40E9453
:104450008420809323028091230287FF05C00E945D
:104460008420819580932302111624F40E948420D5
:10447000809324028091240287FF05C00E9484203B
:10448000819580932402DF91CF911F910C94AA21F2
:104490009F3F09F099CFA1CFDF91CF911F91089550
:1044A000EFE1F2E086E0DF011D928A95E9F71092D4
:1044B0001E0210921D0208950E94AA1C811102C0C2
:1044C0000E942B1D0E94D01C80938502282F2695C8
:1044D00030E02630310524F081708A6080938502B7
:1044E0008091850280FF02C0869501C080E00C9417
:1044F000080320918502822F8695482F50E0453091
:10450000510544F48F5F982F990F822F8170892B6A
:1045100080938502809185028160809385020E944C
:10452000D41C8091850286950C94080380918502A5
:10453000982F969591F09158990F8170892B8093BF
:1045400085028E7F91E009F490E08091850290FBD6
:1045500080F9809385020E94D41C80918502869503
:104560000C9408038091850280FD11C081608093C6
:104570008502813019F483E0809385028091850261
:104580000E94D41C8091850286950C94080308959E
:104590008091850280FF08C08E7F809385020E94F3
:1045A000D41C80E00C94080308958091850280FD5E
:1045B0000C94C8220C94B22290918502892F869582
:1045C0008F5F8F779170863028F4880F892B8093C6
:1045D000850202C090938502809185028E7F91E0D2
:1045E00009F490E08091850290FB80F98093850228
:1045F0000E94D41C8091850286950C940803863015
:1046000008F085E0880F909185029170892B809346
:1046100085028E7F91E009F490E08091850290FB05
:1046200080F9809385020E94D41C80918502869532
:104630000C9408038091450208950F931F93CF9324
:10464000DF9300D01F92CDB7DEB78C010E948D257D
:10465000823011F0843021F584E089831B830A8342
:1046600082E08093E9008FEF9091E800815095FD02
:1046700006C095ED9A95F1F700008111F5CF809174
:10468000E80085FF0DC040E050E063E070E0CE013F
:1046900001960E94AA258091E8008E778093E80019
:1046A0000F900F900F90DF91CF911F910F91089570
:1046B000CF93DF9300D01F92CDB7DEB720918A024F
:1046C000243031F523E02983805891099B838A8324
:1046D00082E08093E9008FEF9091E800815095FD92
:1046E00006C095ED9A95F1F700008111F5CF809104
:1046F000E80085FF0DC040E050E063E070E0CE01CF
:1047000001960E94AA258091E8008E778093E800A8
:104710000F900F900F90DF91CF910895CF93DF937B
:10472000EC010E948D25823011F08430F9F482E092
:104730008093E9009FEF8091E800915085FD06C0CD
:1047400085ED8A95F1F700009111F5CF8091E80091
:1047500085FF0CC040E050E066E070E0CE010E94B2
:10476000AA258091E8008E778093E800DF91CF91B1
:104770000895CF93DF93EC010E948D25823011F0D4
:104780008430D9F580911F01882339F0809183020C
:1047900087FF03C060E282E002C068E081E08093AE
:1047A000E9008FEF9091E800815095FD06C095EDEE
:1047B0009A95F1F700008111F5CF8091E80085FF0F
:1047C0001CC080911F01811105C040E050E068E0ED
:1047D00070E003C070E040E050E0CE010E94AA25E6
:1047E0008091E8008E778093E80080E2FE01A5E2E8
:1047F000B2E001900D928A95E1F7DF91CF91089593
:1048000080918902811109C00E943F270E949C2744
:104810008091E20084608093E20008951092890202
:104820000895089508950C940A1E42E061EC81E019
:104830000E94B92642E261EC82E00C94B926809194
:104840008C02833009F460C030F4813071F0823022
:1048500009F499C008958A3009F485C08B3009F4B1
:104860006BC0893009F0A7C020C080918B02813ACB
:1048700009F0A1C08091E800877F8093E8008091D3
:104880008F0290919002892B21F460E285E292E000
:1048900003C060E080E090E070E00E94F525809128
:1048A000E8008B778093E800089580918B02813235
:1048B00009F081C080918F0290919002029708F0D8
:1048C0007AC08091E800877F8093E8008091E800BB
:1048D00082FD05C080918A028111F8CF6CC02091C1
:1048E000F3008091F20090E0922B029729F48091DE
:1048F000F1008B7F813021F48091F100809345029B
:104900008091E8008B7753C080918B02813A09F047
:1049100052C080918F0290919002892B09F04BC078
:104920008091E800877F8093E8008091E80080FF15
:10493000FCCF80911F0136C080918B028132D9F566
:1049400080918F0290919002892BA9F58091E800C7
:10495000877F8093E8000E94EE2680918D028093ED
:104960001F010C946B1680918B02813221F580918E
:10497000E800877F8093E8000E94EE2680918E02F7
:1049800080934602089580918B02813AA1F4809130
:10499000E800877F8093E8008091E80080FFFCCFEB
:1049A000809146028093F1008091E8008E77809399
:1049B000E8000C94EE26089584B7877F84BF0FB675
:1049C000F894A895809160008861809360001092AF
:1049D00060000FBE80E880936100109261000E9429
:1049E000FB100E943F270E949C278091E200846078
:1049F0008093E20078940E942B2A0E94011185E1A5
:104A000091E00E948E1080918A02853069F40E94A4
:104A1000BD1D809188028823B1F30E94F21D882376
:104A200091F30E949425EFCF0E940B110E94191060
:104A3000EACF0C941B25292F332723303105C9F0E9
:104A400064F42130310581F02230310509F04CC089
:104A50008BE390E020E034E04BC02132310521F1BE
:104A60002232310589F140C082E190E02BE334E04D
:104A70003FC099278130910571F02CF4892BA1F565
:104A8000ECEFF3E00DC08230910541F0039761F542
:104A9000E8EDF3E005C0EAEEF3E002C0EEEDF3E08E
:104AA000849190E09F0124C06115710541F061304F
:104AB0007105D1F489E090E02BE234E019C089E07F
:104AC00090E022E134E014C06115710541F06130DD
:104AD000710551F480EC90E02DE434E009C080E4ED
:104AE00090E02DE035E004C080E090E020E030E090
:104AF000FA013183208308950895CF93C82F0E942F
:104B00007C25C0934702CF91089580918A0284301A
:104B100011F081E0089582E00895809147028111AB
:104B200002C00C948525089580E189BD82E189BD8C
:104B300009B400FEFDCF8091D8008F7D8093D8000E
:104B40008091E00082608093E0008091E00081FD30
:104B5000FCCF0895CF92DF92EF92FF920F931F93B5
:104B6000CF93DF93EC018B016A010E940D27811125
:104B700033C0C114D10439F0F60180819181081B42
:104B8000190BC80FD91FE12CF12C0115110519F1D2
:104B90008091E80085FD16C08091E8008E778093B3
:104BA000E800C114D10449F0F60180819181E80E3A
:104BB000F91EF182E08285E00FC00E940D27882354
:104BC00021F30AC089918093F10001501109FFEF90
:104BD000EF1AFF0ADACF80E0DF91CF911F910F919A
:104BE000FF90EF90DF90CF90089520919102309147
:104BF00092022617370748F06115710539F42091A4
:104C0000E8002E772093E80001C0B90140E061156B
:104C10007105A9F120918A02222309F443C02530AD
:104C200009F442C02091E80023FD40C02091E80033
:104C300022FD32C02091E80020FFE9CF4091F3002F
:104C40002091F20030E0342BFC01CF016115710599
:104C500059F02830310540F481918093F100615082
:104C600071092F5F3F4FF1CF41E02830310509F046
:104C700040E02091E8002E772093E800C8CF411152
:104C8000C9CF0AC080918A02882361F0853061F023
:104C90008091E80083FD0AC08091E80082FFF2CF96
:104CA00080E0089582E0089583E0089581E008950A
:104CB00020919102309192022617370748F0611532
:104CC000710539F42091E8002E772093E80001C0A7
:104CD000B901FC0120E06115710591F180918A0212
:104CE000882309F440C0853009F43FC08091E80072
:104CF00083FD3DC08091E80082FD2FC08091E800D7
:104D000080FFE9CF2091F3008091F20090E0922B98
:104D10006115710559F08830910540F42491209374
:104D2000F1003196615071090196F2CF21E00897A8
:104D300009F020E08091E8008E778093E800CBCFE7
:104D40002111CCCF0AC080918A02882361F085307E
:104D500061F08091E80083FD0AC08091E80082FF45
:104D6000F2CF80E0089582E0089583E0089581E025
:104D70000895982F973058F59093E900981739F0D7
:104D80007091EC002091ED005091F00003C0242FB1
:104D9000762F50E021FF19C03091EB003E7F309319
:104DA000EB003091ED003D7F3093ED003091EB0052
:104DB00031603093EB007093EC002093ED00509342
:104DC000F0002091EE0027FF07C09F5FD3CF8F70C8
:104DD0008093E90081E0089580E0089580918B023E
:104DE00087FF11C08091E80082FD05C080918A0292
:104DF0008111F8CF11C08091E8008B770BC08091B2
:104E00008A02882349F08091E80080FFF8CF8091E2
:104E1000E8008E778093E80008952091E4003091B7
:104E2000E50095E64091EC00842F817040FF22C0A0
:104E30008091E80080FD1CC080918A02882391F057
:104E4000853091F08091EB0085FD10C04091E40029
:104E50005091E5004217530729F39A01915011F739
:104E600084E0089582E0089583E0089581E0089544
:104E700080E008954091E80042FFDECF08950E944F
:104E8000AD270E94B527E0EEF0E08081816080834D
:104E9000E8EDF0E080818F77808319BCA7EDB0E06A
:104EA0008C918E7F8C9380818F7E8083109289027B
:104EB00008950F931F93CF93DF930E94AD270E9415
:104EC000B527C8EDD0E088818F7788838881806896
:104ED000888388818F7D888319BC10928A02109202
:104EE0008602109288021092870200EE10E0F8010C
:104EF00080818B7F808388818160888342E060E04D
:104F000080E00E94B926E1EEF0E080818E7F808310
:104F1000E2EEF0E080818160808380818860808320
:104F2000F80180818E7F8083888180618883DF9112
:104F3000CF911F910F910895E8EDF0E080818F7E71
:104F40008083E7EDF0E080818160808384E082BF30
:104F500081E0809389020C945927E8EDF0E080818C
:104F60008E7F80831092E20008951092DA001092F2
:104F7000E10008951F920F920FB60F9211242F9304
:104F80003F934F935F936F937F938F939F93AF93D1
:104F9000BF93EF93FF938091E10082FF0BC080915C
:104FA000E20082FF07C08091E1008B7F8093E100E7
:104FB0000E942A2A8091DA0080FF1FC08091D800C9
:104FC00080FF1BC08091DA008E7F8093DA00809191
:104FD000D90080FF0DC080E189BD82E189BD09B49F
:104FE00000FEFDCF81E080938A020E94002405C06C
:104FF00019BC10928A020E940E248091E10080FF69
:1050000019C08091E20080FF15C08091E2008E7F80
:105010008093E2008091E20080618093E2008091C1
:10502000D80080628093D80019BC85E080938A0202
:105030000E9412248091E10084FF30C08091E20040
:1050400084FF2CC080E189BD82E189BD09B400FEE6
:10505000FDCF8091D8008F7D8093D8008091E100B2
:105060008F7E8093E1008091E2008F7E8093E2004A
:105070008091E20081608093E20080918602882323
:1050800011F084E007C08091E30087FD02C081E059
:1050900001C083E080938A020E9413248091E10082
:1050A00083FF29C08091E20083FF25C08091E10049
:1050B000877F8093E10082E080938A0210928602CB
:1050C0008091E1008E7F8093E1008091E2008E7FED
:1050D0008093E2008091E20080618093E20042E0F0
:1050E00060E080E00E94B9268091F00088608093A3
:1050F000F0000E941124FF91EF91BF91AF919F9119
:105100008F917F916F915F914F913F912F910F9070
:105110000FBE0F901F9018951F920F920FB60F920F
:1051200011242F933F934F935F936F937F938F93AC
:105130009F93AF93BF93CF93DF93EF93FF93C09170
:10514000E900CF708091EC00D82FD17080FDD0E8BD
:105150001092E9008091F000877F8093F0007894AE
:105160000E94D0281092E9008091F000886080931E
:10517000F000CD2BCF70C093E900FF91EF91DF914C
:10518000CF91BF91AF919F918F917F916F915F91DF
:105190004F913F912F910F900FBE0F901F90189538
:1051A0001F93CF93DF93CDB7DEB7AA970FB6F894CE
:1051B000DEBF0FBECDBFEBE8F2E088E08E0F90912E
:1051C000F10091938E13FBCF0E941F248091E80081
:1051D00083FF28C180918B0290918C02492F50E06F
:1051E0004A30510508F01EC1FA01E556FF4F0C94F4
:1051F000E92D803821F0823809F014C108C080916F
:10520000870290918802992389F082600FC0809173
:105210008F028F70873008F005C18093E90080917C
:10522000EB0085FB882780F91092E9009091E80057
:10523000977F9093E8008093F1001092F100D0C026
:10524000282F2D7F09F0EEC0882319F0823061F0FD
:10525000E9C080918D02813009F0E4C0933009F0FB
:1052600080E0809388022EC080918D0281112AC037
:1052700080918F028F702FEF280F263008F0D2C058
:105280008093E9002091EB0020FF1CC0933021F4B3
:105290008091EB00806214C09091EB00906190933C
:1052A000EB0021E030E0A90102C0440F551F8A95B0
:1052B000E2F74093EA001092EA008091EB008860E8
:1052C0008093EB001092E9008091E800877F809343
:1052D000E8000E94EE26A6C08111A4C010918D02A4
:1052E0001F778091E3008078812B8093E300809189
:1052F000E800877F8093E8000E94EE268091E80016
:1053000080FFFCCF8091E30080688093E30011115F
:1053100002C082E001C083E080938A0283C080588B
:10532000823008F07FC080918D0290918E028C3D7A
:1053300053E0950779F583E08A838AE289834FB742
:10534000F894DE01139620E03EE051E2E32FF0E016
:1053500050935700E49120FF03C0E295EF703F5F48
:10536000EF708E2F90E0EA3010F0C79601C0C09623
:105370008D939D932F5F243149F74FBF8091E800B3
:10538000877F8093E8006AE270E0CE0101960E9478
:10539000F52515C060918F0270919002AE014F5FAC
:1053A0005F4F0E941925BC01892BE1F19091E80023
:1053B000977F9093E80089819A810E945826809176
:1053C000E8008B778093E8002DC0803859F58091F4
:1053D000E800877F8093E800809186028093F10047
:1053E0008091E8008E7773CF81111CC090918D025F
:1053F0009230C0F48091E800877F8093E80090931A
:1054000086020E94EE2680918602811106C080915C
:10541000E30087FD02C081E001C084E080938A023E
:105420000E9415248091E80083FF0AC08091E80063
:10543000877F8093E8008091EB0080628093EB008F
:10544000AA960FB6F894DEBF0FBECDBFDF91CF9105
:105450001F9108950895CF9380918A028823A1F027
:10546000C091E900CF709091EC00892F817090FD80
:1054700080E8C82B1092E9008091E80083FD0E942B
:10548000D028CF70C093E900CF9108955058BB2722
:10549000AA270E945E2A0C94092C0E94FB2B38F04C
:1054A0000E94022C20F039F49F3F19F426F40C944A
:1054B000D12B0EF4E095E7FB0C94CB2BE92F0E9447
:1054C0001A2C58F3BA17620773078407950720F060
:1054D00079F4A6F50C943C2C0EF4E0950B2EBA2F23
:1054E000A02D0B01B90190010C01CA01A0011124EA
:1054F000FF27591B99F0593F50F4503E68F11A1696
:10550000F040A22F232F342F4427585FF3CF469526
:1055100037952795A795F0405395C9F77EF41F1648
:10552000BA0B620B730B840BBAF09150A1F0FF0F12
:10553000BB1F661F771F881FC2F70EC0BA0F621FFE
:10554000731F841F48F4879577956795B795F795EE
:105550009E3F08F0B0CF9395880F08F09927EE0F83
:105560009795879508950E94C72A0C94092C0E944C
:10557000022C58F00E94FB2B40F029F45F3F29F0E9
:105580000C94CB2B51110C943D2C0C94D12B0E94DC
:105590001A2C68F39923B1F3552391F3951B550BFE
:1055A000BB27AA2762177307840738F09F5F5F4FF6
:1055B000220F331F441FAA1FA9F335D00E2E3AF035
:1055C000E0E832D091505040E695001CCAF72BD04D
:1055D000FE2F29D0660F771F881FBB1F261737079E
:1055E0004807AB07B0E809F0BB0B802DBF01FF27D0
:1055F00093585F4F3AF09E3F510578F00C94CB2BB7
:105600000C943D2C5F3FE4F3983ED4F38695779558
:105610006795B795F7959F5FC9F7880F911D969588
:10562000879597F90895E1E0660F771F881FBB1FE4
:10563000621773078407BA0720F0621B730B840B91
:10564000BA0BEE1F88F7E095089529F416F00C9434
:10565000CB2B0C943C2C0C94D12B0E94222CA8F325
:105660009638A0F707F80F92E8942BE33AEA48EB54
:105670005FE70E94CF2C0F920F920F924DB75EB74B
:105680000F920E94852CEAE4F1E00E94D42B4F9106
:105690005F91EF91FF91E595EE1FFF1F49F0FE57D7
:1056A000E0684427EE0F441FFA95E1F74195550B4A
:1056B0000E944F2C0F9007FE0C94432C08950E94DB
:1056C000222C88F09F5798F0B92F9927B751B0F046
:1056D000E1F0660F771F881F991F1AF0BA95C9F776
:1056E00014C0B13091F00E943C2CB1E008950C94AC
:1056F0003C2C672F782F8827B85F39F0B93FCCF35F
:10570000869577956795B395D9F73EF490958095F2
:10571000709561957F4F8F4F9F4F0895E89409C012
:1057200097FB3EF490958095709561957F4F8F4FD4
:105730009F4F9923A9F0F92F96E9BB279395F695EA
:10574000879577956795B795F111F8CFFAF4BB0F68
:1057500011F460FF1BC06F5F7F4F8F4F9F4F16C0CC
:10576000882311F096E911C0772321F09EE8872F56
:10577000762F05C0662371F096E8862F70E060E012
:105780002AF09A95660F771F881FDAF7880F96958B
:10579000879597F9089597F99F6780E870E060E032
:1057A00008959FEF80EC0895DF93CF931F930F939D
:1057B000FF92EF92DF927B018C01689406C0DA2E93
:1057C000EF010E94CC2CFE01E894A5912591359122
:1057D00045915591A6F3EF010E945E2AFE019701C3
:1057E000A801DA9469F7DF90EF90FF900F911F9175
:1057F000CF91DF91089500240A9416161706180613
:105800000906089500240A941216130614060506C4
:105810000895092E0394000C11F4882352F0BB0F55
:1058200040F4BF2B11F460FF04C06F5F7F4F8F4FB8
:105830009F4F089557FD9058440F551F59F05F3FF3
:1058400071F04795880F97FB991F61F09F3F79F0A2
:1058500087950895121613061406551FF2CF469524
:10586000F1DF08C0161617061806991FF1CF8695A6
:105870007105610508940895E894BB27662777278A
:10588000CB0197F908959B01AC0160E070E080E8DE
:105890009FE30C94B32A0C94CB2B0C942E2D0E94D6
:1058A000222CD8F39923C9F3940F511DA3F39150DF
:1058B000504094F059F0882332F0660F771F881F0C
:1058C00091505040C1F79E3F51052CF7880F911D14
:1058D0009695879597F908955F3FACF0983E9CF0B8
:1058E000BB27869577956795B79508F4B160939532
:1058F000C1F7BB0F58F711F460FFE8CF6F5F7F4F20
:105900008F4F9F4FE3CF0C943D2CFA01DC01AA0F7F
:10591000BB1F9B01AC01BF5728F422273327442724
:10592000507820C0B75190F4AB2F0024469537959E
:105930002795011CA395D2F3002071F0220F331F8D
:10594000441FB395DAF30ED00C94462A61307105EA
:10595000A0E88A07B94630F49B01AC016627772797
:1059600088279078309621F02083318342835383B7
:1059700008950E94CC2C0C94092C0E94FB2B38F02B
:105980000E94022C20F0952311F00C94CB2B0C9448
:10599000D12B11240C943D2C0E941A2C70F3959F4E
:1059A000C1F3950F50E0551F629FF001729FBB2716
:1059B000F00DB11D639FAA27F00DB11DAA1F649FB2
:1059C0006627B00DA11D661F829F2227B00DA11D65
:1059D000621F739FB00DA11D621F839FA00D611DEB
:1059E000221F749F3327A00D611D231F849F600D0C
:1059F000211D822F762F6A2F11249F5750409AF035
:105A0000F1F088234AF0EE0FFF1FBB1F661F771FC0
:105A1000881F91505040A9F79E3F510580F00C948B
:105A2000CB2B0C943D2C5F3FE4F3983ED4F386954A
:105A300077956795B795F795E7959F5FC1F7FE2B2B
:105A4000880F911D9695879597F908959F930E94C9
:105A50003E2D0F9007FCEE5F0C94672D9F3F31F0B9
:105A6000915020F4879577956795B795880F911D8C
:105A70009695879597F908950C94D12B0E94222C26
:105A8000D8F3E894E0E0BB279F57F0F02AED3FE021
:105A900049EC06C0EE0FBB0F661F771F881F28F06A
:105AA000B23A62077307840728F0B25A620B730B8D
:105AB000840BE3959A9572F7803830F49A95BB0F72
:105AC000661F771F881FD2F790480C94302DEF93F4
:105AD000E0FF07C0A2EA2AED3FE049EC5FEB0E943D
