:100000000C9401030C9448030C9448030C9448038B
:100010000C9448030C9448030C9448030C94480334
:100020000C9448030C9448030C94CD270C949F28FF
:100030000C94341E0C9448030C9448030C9448030D
:100040000C9448030C9448030C9448030C94480304
:100050000C9448030C949C1E0C9448030C94480385
:100060000C9448030C9448030C9448030C944803E4
:100070000C9448030C9448030C9448030C944803D4
:100080000C9448030C9448030C9448030C944803C4
:100090000C9448030C9448030C9448030C944803B4
:1000A0000C9448030C9448030C944803B404B6041D
:1000B000C104B804BA04BC04BE04C004C304C5042B
:1000C000C704D204C904CB04CD04CF04D104D404A2
:1000D000B513B513E713E71325144514DA15DA152C
:1000E0008714DA1534153415A615AF15DA15D3159E
:1000F0004115411541154115411541154115411550
:10010000411541154115411541154115411541153F
:100110005215601567156E157815691669167B16E8
:100120007B1672167B167B167B1669166916771678
:100130007B167B1677160C293329252A3329252A85
:100140007F29A229252AF829072A29001E001F0035
:100150002000210022002300240025002600270083
:100160002D002E00310035002B00000014001A0075
:100170000800150017001C0018000C0012001300E6
:100180002F0030002A00E3000000040016000700E2
:1001900009000A000B000D000E000F0033003400B0
:1001A00028000000E10000001D001B0006001900EF
:1001B0000500110010003600370038000000E10093
:1001C0000151E000E3000000E200000000002C000C
:1001D0000000000000000000E3000000E700E40071
:1001E000BB5C3A003B003C003D003E003F0040004D
:1001F000410042004300440045000000460000006A
:10020000000000005200BF5CC05CBC5CBE5CBD5C1A
:10021000C15C4B004E004A004D004C000000000045
:10022000500051004F0000000000000000000000DE
:100230000000000000005800000000000000000066
:10024000000000000000AC00AB00A800AA00A9005C
:10025000AD000000AE000100000000000000000042
:10026000000000000000000000000000000000008E
:1002700000000000000000047F3F1F64321464325D
:1002800014783C1E1E140A052223252628292A2C10
:100290002D2F3032333536383A3B3D3E40424345D0
:1002A00047494A4C4E5051535557595A5C5E60620B
:1002B000646668696B6D6F71737577797B7D7F811B
:1002C000838587898A8C8E90929496989A9C9E9F1B
:1002D000A1A3A5A7A8AAACAEAFB1B3B4B6B8B9BB39
:1002E000BCBEBFC1C2C3C5C6C7C9CACBCCCDCED0A8
:1002F000D1D2D2D3D4D5D6D7D7D8D9D9DADADBDB95
:10030000DBDCDCDCDCDCDDDDDDDDDCDCDCDCDCDB2B
:10031000DBDBDADAD9D9D8D7D7D6D5D4D3D2D2D174
:10032000D0CECDCCCBCAC9C7C6C5C3C2C1BFBEBC67
:10033000BBB9B8B6B4B3B1AFAEACAAA8A7A5A3A1D8
:100340009F9E9C9A98969492908E8C8A898785839A
:10035000817F7D7B79777573716F6D6B696866647A
:1003600062605E5C5A5957555351504E4C4A49474A
:10037000454342403E3D3B3A3836353332302F2DEF
:100380002C2A292826252322FFAA7F554000000079
:100390000000000000000001010101010101010154
:1003A0000202020202020202030303030303030424
:1003B00004040404050505050506060606060707E8
:1003C0000707080808080909090A0A0A0B0B0B0C99
:1003D0000C0C0D0D0D0E0E0E0F0F10101011111232
:1003E0001213131414151516161717181819191AAD
:1003F0001A1B1C1C1D1D1E1F1F202121222323240C
:10040000252526272828292A2B2C2C2D2E2F303144
:100410003132333435363738393A3B3C3D3E3F4054
:100420004142434445464748494B4C4D4E4F50523C
:100430005354555758595A5C5D5E606163646567F3
:10044000686A6B6C6E6F7172747677797A7C7D7F77
:100450008182848687898B8D8E9092949597999BC3
:100460009D9FA1A2A4A6A8AAACAEB0B2B4B6B9BBD7
:10047000BDBFC1C3C5C8CACCCED0D3D5D7DADCDEA8
:10048000E1E3E6E8EAEDEFF2F4F7F9FCFF0403300C
:100490000000000A0344005A00360030000000103B
:1004A000034B0042004400460061006E00730000F0
:1004B000000403090409023B00020100A0FA090438
:1004C0000000010301010009211101000122400087
:1004D0000705810308000A09040100010300000068
:1004E00009211101000122C0000705820320000A32
:1004F0001201100100000008EDFE6022010001025F
:10050000030105010902A10185020901A1000509F4
:10051000190129051500250195057501810295012F
:10052000750381010501093009311581257F950287
:100530007508810609381581257F950175088106A2
:10054000050C0A38021581257F950175088106C0C2
:10055000C005010980A10185031601002603001AC8
:1005600081002A8300751095018100C0050C0901E6
:10057000A1018504160100269C021A01002A9C0292
:10058000751095018100C005010906A101850505C9
:100590000719E029E7150025019508750181020575
:1005A00008190129059505750191029501750391B9
:1005B000010507190029EF1500250195F075018146
:1005C00002C005010906A101050719E029E7150088
:1005D00025019508750181029501750881010508BD
:1005E0001901290595057501910295017503910180
:1005F0000507190029FF150026FF009506750881DB
:1006000000C011241FBECFEFDAE0DEBFCDBF04B6BD
:1006100003FE27C08091A5029091A602A091A70297
:10062000B091A8028730904BA740B04BD1F4109204
:10063000A5021092A6021092A7021092A80214BE60
:1006400084B7877F84BF0FB6F894A8958091600027
:10065000886180936000109260000FBEE0E0F8E3D4
:10066000099511E0A0E0B1E0E4E5F6E502C00590EF
:100670000D92AA35B107D9F722E0AAE5B1E001C091
:100680001D92A53AB207E1F70E94EF240C94282BA3
:100690000C9400000C94F008229A2A9A08950E9463
:1006A000EF080C944C0381FF02C02A9801C02A9ADB
:1006B0000C94230481E0089581E008950C945C0378
:1006C0001F93CF93DF9300D000D01F92CDB7DEB73A
:1006D00049835A832091930189819A81211112C003
:1006E000662349F00E948E1B182F682F89819A81FA
:1006F0000E94331B03C00E94621B182F69817A81FC
:10070000812F04C00E948E1B69817A810F900F9007
:100710000F900F900F90DF91CF911F910C94420694
:10072000FC01408151816281738184810C9460035A
:100730000C944A03E82FE295EF70F0E032A1282FE5
:100740002F7081E090E001C0880F2A95EAF780952C
:10075000832382A30895CF92DF92EF92FF92863097
:1007600030F4811105C0909180009F7D04C085E028
:1007700090918000906290938000282F30E0AFEF3E
:10078000BFEF0E94B92A25E030E040E050E00E942F
:10079000912A2C3784E138074105510530F4C9010D
:1007A00069E070E00E94692A29C0DA01C9018A5013
:1007B000974DAF4FBF4F6627782F892F9A2F25EF80
:1007C00038E241E050E00E94912A69017A01CA01B1
:1007D000B9010E94592A9B01AC01C701B6010E94D0
:1007E000592ABB27A92F982F872F009721E0A2070E
:1007F000B10511F0BC0102C06FEF7FEF70938B0069
:1008000060938A00FF90EF90DF90CF900895269A32
:1008100086E30E949A0382E28093800089E18093BC
:1008200081008FEF9FEF90938700809386000C9458
:100830006F220E94BE1C811102C00E944B1D0E94AB
:1008400007040C944F0308950C94530308950E94D9
:1008500059160E9426042FEF84E39CE0215080402B
:100860009040E1F700C000000C94C21E0F931F934C
:10087000CF93DF938C010E949003EC01B8010E949A
:100880005E03882309F4F4C1B801CE010E942E1042
:10089000882309F4EDC1CA3CFCE5DF0741F4F80107
:1008A0008281882309F4E4C10E94C40CE1C1CB3CDD
:1008B0008CE5D80708F00FC1C33C9CE5D90761F46B
:1008C000F8018281882309F4D3C10E940E1C827230
:1008D000E1F00E94B00ECCC1C43CECE5DE07C0F0F4
:1008E000C63C9CE5D90709F4C7C008F0D9C0C43C90
:1008F000FCE5DF0709F0C8C0F8018281882309F40C
:10090000B7C10E940E1C827221F30E94A30EB0C1D7
:10091000C531FCE5DF0708F078C0C2308CE5D807A8
:1009200008F452C0F8018281882309F454C00E945F
:10093000BE1C811102C00E944B1D0E94DB1C90E076
:100940009093960280939502FE01E350FC45E231BC
:10095000F10530F4EA5AFF4F809195020C94B32AC6
:1009600080919502816027C0826025C0846023C089
:10097000806121C080621FC080641DC080681BC070
:100980008460886018C08E7F16C08D7F14C08B7FF6
:1009900012C08F7E10C08F7D0EC08F7B0CC08F77F2
:1009A0000AC08B7F877F07C087FB222720F991E051
:1009B000922790FB87F980939502809195020E947F
:1009C000DF1C0E94591654C1C1159CE5D90751F08E
:1009D000C130DC4579F0C801DF91CF911F910F91B3
:1009E0000C945A03F8018281882309F441C10E94C2
:1009F00027043EC1F8018281882309F439C180911E
:100A00002B02816080932B0233C1C631FCE5DF07E6
:100A100039F50E940E1C282FF801828140910E01A9
:100A200050910F01882379F02A7A91E009F490E03F
:100A300090935A01911102C069E201C065E3CA01B5
:100A40000E94B21D0AC080915A01811102C069E260
:100A500001C065E3CA010E94BD1D0E945A1C08C165
:100A6000C23CDC4509F0B7CFF8018281882309F444
:100A7000FFC00E94BE0EFCC0F8018281882309F4E9
:100A8000F7C00E94880CF4C0C53CDC4509F0A3CF38
:100A9000F8018281882309F4EBC00E947B0CE8C036
:100AA000F8018281C83CFCE5DF0731F4882309F4B2
:100AB000DFC00E94A60CDCC0C93CDC4530F48823B2
:100AC00009F4D6C00E94970CD3C0882309F4D0C083
:100AD0000E94B50CCDC0C13DECE5DE0791F4F801F4
:100AE0008281882309F4C4C00E94FF0A8F3028F055
:100AF0000E94FF0A843108F408CF8FE00E94B30EF1
:100B0000B7C0C23DFCE5DF0708F05AC0CD3C8CE51C
:100B1000D80739F4F8018281882309F4A9C081E05B
:100B2000EDCFCE3C9CE5D907C0F4CB3CECE5DE072D
:100B300041F4F8018281882309F49AC00E94070BCE
:100B400097C0CC3CDC4509F046CFF8018281882370
:100B500009F48EC00E94180B8BC0F8018281CF3C33
:100B6000FCE5DF0771F4882309F482C00E94FF0AC4
:100B7000863028F00E94FF0A883008F4C6CE86E04E
:100B8000BDCFC03DDC4570F4882309F471C00E94DC
:100B9000FF0A823028F00E94FF0A853008F4B5CEA3
:100BA00082E0ACCF882309F463C00E94FF0A893039
:100BB00028F00E94FF0A8E3008F4A7CE89E09ECF6D
:100BC000C53DECE5DE0739F4F8018281882309F49C
:100BD0004FC083E293CFC63DFCE5DF0740F5F80147
:100BE0008281C33DFCE5DF0729F4882309F440C076
:100BF00088E184CFC43DDC4568F48823C9F10E94B4
:100C0000FF0A853128F00E94FF0A873108F47DCE63
:100C100085E174CF882361F10E94FF0A893128F0B1
:100C20000E94FF0A823208F470CE89E167CFCD3D81
:100C3000ECE5DE0741F4F80182818823C9F082E007
:100C40000E94902515C0CE3DFCE5DF0739F4F80180
:100C50008281882369F00E944B1D0AC0CC3DDC458F
:100C600009F0B9CEF8018281882311F080E0E8CF45
:100C700080E0DF91CF911F910F91089580E090E087
:100C8000089508959FE0799FF00111249BE4899FC6
:100C9000E00DF11D1124E60FF11DEE0FFF1FE65BC5
:100CA000FE4F859194910895880F991FFC01EA5891
:100CB000FD4F859194910895CF93DF930E94420652
:100CC0000E944F08EC01811521E5920708F042C00F
:100CD000811560E5960708F031C1883E910500F561
:100CE000803E910508F0D7C1883A910570F4853AA5
:100CF000910508F0A6C08130910509F4CCC108F433
:100D00007DC1049708F0C7C179C18F3B910508F4F4
:100D1000A3C0803C910508F471C1805C9109FDC0BD
:100D2000C11580E3D80780F4C11590E2D90708F017
:100D3000F2C0C03FD10508F461C1CF3FD10511F029
:100D400008F0A9C1D065A7C1C11520E4D20708F0F9
:100D5000F2C0E7C0811569E5960760F5C11588E521
:100D6000D80708F037C1C11594E5D90778F4C11543
:100D700023E5D20708F013C1C11562E5D60708F0D4
:100D8000F8C0DC2FCC27C16FD06A85C1C11585E5BD
:100D9000D80708F41AC1C11596E5D90708F02EC185
:100DA0008C2F0E94CC088F71C82FD0E0DC2FCC276D
:100DB000D06271C18D3B2CE5920709F416C1F0F4A5
:100DC000CB3B8CE5D80709F40AC108F00BC1C1156B
:100DD0002AE5D20708F012C18C2F8F700E94CC0830
:100DE00094E0D695C7959A95E1F7CF70D0E0DC2FC7
:100DF000CC27D06A8F70806EC82B4DC1803C9C453B
:100E000009F4F9C0C13C8CE5D80760F4CE3B9CE501
:100E1000D90709F4EDC0CF3BDC4509F0EFC0C0E0D5
:100E2000D2ED39C1CE0190568115904208F0E6C04E
:100E30008D2F8F710E94CC08DD27D0628F71D82B47
:100E40002AC1853A910509F4DCC0863A910509F07A
:100E5000DBC0C2E8D0E41FC1883A910509F4D7C0CD
:100E6000893A910509F4D6C08A3A910509F4D5C0AA
:100E70008B3A910509F4D4C08C3A910509F4D3C09A
:100E80008B3B910509F4D2C08C3B910509F4D1C08C
:100E90008D3A910509F4D0C0803B910509F4CFC08B
:100EA0008E3A910509F4CEC08F3A910509F4CDC070
:100EB000813B910509F4CCC0823B910509F4CBC07C
:100EC000833B910509F4CAC0843B910509F4C9C06C
:100ED000853B910509F4C8C0863B910509F4C7C05C
:100EE000873B910509F4C6C0883B910509F4C5C04C
:100EF000893B910509F4C4C08D3B910509F4C3C039
:100F00008E3B910509F4C2C08A3B910509F4C1C02A
:100F1000C0E0D4E4C0C0CE019F700E945406EC0132
:100F2000BAC0CE019927D3FF03C0EC01D86CB3C07F
:100F3000EC01D06CB0C0DF70D06AADC0837021E02E
:100F400030E002C0220F331F8A95E2F73C68CE01E1
:100F500074E0969587957A95E1F78370382BCF707A
:100F6000C695C69580E2C89FE0011124C22BD32B01
:100F700092C04C2F4695469590E2499FA0011124BE
:100F8000C370DD2721E030E0C90102C0880F991F3E
:100F9000CA95E2F7EC01C42BD52BDC687CC04C2F42
:100FA0004695469580E2489FA0011124C370DD2735
:100FB00021E030E0C90102C0880F991FCA95E2F70D
:100FC000EC01C42BD52BDA6866C0DC2FCC27C46FAC
:100FD000D06A61C0DC2FCC27C06FD06A5CC0C0E093
:100FE000D4ED59C0C0E0D5ED56C0C0E0D1ED53C03E
:100FF000C0E0D0ED50C0C0E0D3ED4DC0C0E0D0E0C7
:101000004AC0C1E8D0E447C0C3E8D0E444C0C2EE5F
:10101000D4E441C0C9EED4E43EC0CAEED4E43BC03F
:10102000C5EBD4E438C0C6EBD4E435C0C3EBD4E49C
:1010300032C0C4EBD4E42FC0C7EBD4E42CC0CCEC5A
:10104000D4E429C0CDECD4E426C0C3E8D5E423C061
:10105000CAE8D5E420C0C2E9D5E41DC0C4E9D5E49E
:101060001AC0C1E2D6E417C0C3E2D6E414C0C4E299
:10107000D6E411C0C5E2D6E40EC0C6E2D6E40BC089
:10108000C7E2D6E408C0CFE6D4E405C0C0E7D4E4A4
:1010900002C0CAE2D6E4CE01DF91CF910895823832
:1010A000910549F1B0F48133910509F458C048F431
:1010B0008932910509F44EC08A32910509F454C071
:1010C00008958533910509F440C08933910599F05D
:1010D0000895833E910529F138F4803E910591F001
:1010E000823E9105A1F00895863E9105F9F0873E74
:1010F000910531F108952091950220FD3AC021FD1E
:1011000038C008958091950280FD35C032C080912D
:10111000950282FF32C08091950284FD30C083EE3B
:1011200039C08091950282FD28C0F5CF809195024B
:1011300083FF27C08091950284FD21C087EE2AC0DD
:101140008091950283FD1DC0F5CF8091950285FDAC
:101150001AC01BC08091950285FD17C014C08091F4
:10116000950286FD14C015C08091950286FD11C0C0
:101170000EC080EE0FC089E30DC082EE0BC080E090
:1011800009C086EE07C089E205C085E303C08AE294
:1011900001C081E390E008959091950292FF0DC007
:1011A000282F2871283019F4877F846006C0282FE3
:1011B0002471243011F48B7F886093FF0DC0282F99
:1011C0002871283119F4877E846106C0282F247184
:1011D000243111F48B7E886194FD877E08950895F3
:1011E0000895E82FF0E0EE0FFF1FE55AFE4F8081D3
:1011F000918108950895E0E3F1E041E050E025E0B9
:101200002E0F9191A92FA295AF70B0E091963C91CD
:1012100091979F70BA0102C0660F771F9A95E2F707
:10122000CB018095832391968C932E13EACFA1E274
:10123000B1E041E050E02FE02A0F8D91E82FE295D8
:10124000EF70F0E031A18F70BA0102C0660F771F16
:101250008A95E2F7CB01962F9095932391A392A1C3
:10126000892B82A32A13E9CFE5E6F1E0ABE5B1E0F3
:10127000119211921D921D9271E0EF36F707C1F79E
:1012800085E00E94DD090C9419044F925F927F92D1
:101290008F929F92AF92BF92CF92DF92EF92FF9286
:1012A0000F931F93CF93DF9320E3422E21E0522E22
:1012B000A5E6B1E020E001E010E05D018D909C909A
:1012C000119711961C921E92E20189912E01E82F2E
:1012D000E295EF70F0E031A18F70A80102C0440FD9
:1012E000551F8A95E2F7CA01342B31A342A1382F4A
:1012F0003095432342A350EA5A95F1F791E2C92E63
:1013000091E0D92E40E050E0E60179906E01672D22
:1013100062956F7070E0EB01E8A06D917C91119780
:10132000F12CD72DDF7002C0F594E794DA95E2F73F
:10133000E0FC08C07801042E02C0EE0CFF1C0A94E9
:10134000E2F702C0E12CF12C6E297F2911967C93E3
:101350006E934F5F5F4F4F305105B1F691A1392326
:1013600031A392A1892B82A3129681E0F5014081DD
:1013700051818416950609F480E0282BF1E0AF3600
:10138000BF0709F09ACF45E06BE571E085E691E093
:101390000E94DE090E94980381E0DF91CF911F91A6
:1013A0000F91FF90EF90DF90CF90BF90AF909F9004
:1013B0008F907F905F904F9008950895FF920F93C4
:1013C0001F93CF93DF93F82E092F162FD72FC42FFB
:1013D000222349F081E0809371010E94661E909360
:1013E000700180936F01809171018823D9F0809101
:1013F0006F01909170010E94721E069798F0EF2D78
:10140000F02FA12FBD2F80E090E04C2F50E08417EB
:10141000950734F4219131912D933D930196F7CFA7
:1014200010927101DF91CF911F910F91FF9008955C
:10143000CF92DF92EF92FF920F931F93CF93DF93A0
:10144000D62E472FE82FF82F711103C0682F782F61
:101450007CC0072F10E0E82EF12C26E0629FC0012F
:101460001124CFEFD0E0BE010E94692A9B015BEA04
:101470005603C001579F900D11248D0D911D8D0DA8
:10148000911D982F990F980F6E01C01AD10AB701BC
:10149000C69ED001C79EB00DD69EB00D11248B2FD5
:1014A000949FA0011124452F55277E01E41AF50AC7
:1014B000E69EA001E79E500DF69E500D11246E0190
:1014C000C91AD108C09E7001C19EF00CD09EF00CCC
:1014D00011240F2D1127C01BD10BC69F8001C79F60
:1014E000100DD69F100D1124712F2230310591F06F
:1014F0004CF421153105D9F021303105B1F47E2F9E
:10150000E52F15C02430310561F044F02630310557
:1015100071F00BC0EB2F812F7F2F09C0752FEB2FA0
:1015200002C0E12F7B2F8F2F02C07B2F852FF0E091
:10153000E357FC4F6491E72FF0E0E357FC4F7491C1
:10154000E82FF0E0E357FC4F8491DF91CF911F919A
:101550000F91FF90EF90DF90CF9008950895CF9373
:10156000DF93762FE901682F842F0E94180A698380
:1015700078838A83DF91CF91089580915A02282F32
:10158000269530E02115310519F48170826005C07F
:101590002532310524F08170886480935A020895C1
:1015A00088E090E00C94E82ACF93DF9300D000D03D
:1015B000CDB7DEB7AB01BC0149835A836B837C8313
:1015C0000E94BD0A49815A816B817C8188E090E04C
:1015D0000F900F900F900F90DF91CF910C94062BEE
:1015E000EAE5F2E083E0808311828FEF82838383D8
:1015F000148260817181828193810C94D40A8091DC
:101600005A0280FF02C08695089580E00895809177
:101610005E02833018F48F5F80935E0260915A02FD
:1016200070915B0280915C0290915D020C94D40AEF
:1016300080915E02882319F0815080935E02609150
:101640005A0270915B0280915C0290915D020C9451
:10165000D40A8091750123E0829FC0011124815A30
:101660009D4F6091020170E020915A0220FD0DC053
:1016700020E030E0F901E15AFD4F11821082128220
:101680002D5F3F4F20333105A9F70C94CC0F90917B
:101690005A0290FF0FC020E030E0F901E15AFD4FFF
:1016A0008183608342832D5F3F4F20333105A9F74B
:1016B0000C94290B0895CF93DF9300D01F92CDB7E0
:1016C000DEB790915A0290FF0AC09E012F5F3F4FF4
:1016D0000E94AF0A4B8169818A810E94470B0F905B
:1016E0000F900F90DF91CF910895CF93DF93EC018E
:1016F000EC81F0E0E857FD4F4491EAE5F2E06281C9
:1017000081810E945B0B8C818F5F8C83DF91CF91F5
:101710000895CF93DF93EC01EAE5F2E04381628123
:101720008C810E945B0B8C818F5F8C83DF91CF91CA
:1017300008950F931F93CF93DF9300D01F92CDB7DF
:10174000DEB78C018091720181110AC09E012F5F6A
:101750003F4F4FEF6FEF0E94AF0A8A818093720173
:10176000F8018481813051F028F0823061F4409199
:1017700072010AC08091720140E007C0609172015D
:1017800040E080E003C040E080E060E00E94470B62
:10179000F801248130E0C901019663E070E00E9405
:1017A0007D2A84830F900F900F90DF91CF911F912E
:1017B0000F9108957F928F929F92AF92BF92CF9296
:1017C000DF92EF92FF920F931F93CF93DF9300D09E
:1017D0001F92CDB7DEB7182FD62E042FC22E9091B0
:1017E0005A0290FF6DC0E92FE695AE2FB0E0AB5CDA
:1017F000BE4F8C9180937D019E7F923061F49E015B
:101800002F5F3F4F812F0E94AF0A4B8169818A81F0
:101810000E94470B43C0823019F400915D023EC024
:10182000863019F410915B0239C08930D9F38931BF
:10183000A9F5E9512E2F2170722EE695F0E0E857B8
:10184000FC4F859094903FE5A32E32E0B32EE12C1F
:10185000F12C9924E89CC001E99C900DF89C900D16
:10186000112424E0969587952A95E1F7711002C01E
:10187000810F03C0212F281B822F9501402F6D2D32
:101880000E94AF0A8FEFE81AF80A23E0A20EB11CFB
:1018900080E1E816F104F1F60E94290B10935B0237
:1018A000D0925C0200935D02CC2051F060915A020C
:1018B00070915B0280915C0290915D020E94D40A5B
:1018C0000F900F900F90DF91CF911F910F91FF908C
:1018D000EF90DF90CF90BF90AF909F908F907F90D0
:1018E0000895EAE5F2E09181282F4381628188E042
:1018F000890F0C94DA0B81E00C94710CEAE5F2E0AC
:101900009181282F4381628188EF890F0C94DA0B33
:1019100081E00C947E0CEAE5F2E0628128E0620F3F
:1019200008F46FEF282F438181810C94DA0B81E05A
:101930000C948B0CEAE5F2E0628128E0621B08F46B
:1019400060E0282F438181810C94DA0B81E00C94B4
:101950009A0CEAE5F2E0438128E0420F08F44FEFE9
:10196000282F628181810C94DA0B81E00C94A90C00
:10197000EAE5F2E0438128E0421B08F440E0282F2A
:10198000628181810C94DA0B81E00C94B80C20E028
:101990000C94DA0BEF92FF921F93CF93DF93EC013D
:1019A0008FE5E82E82E0F82E10E08C8197014091BF
:1019B0005D0260915C02810F0E94AF0A115F83E0BB
:1019C000E80EF11C103F89F70E94290B8A819C8147
:1019D00080FF02C09F5F01C091509C83DF91CF9137
:1019E0001F91FF90EF900895AF92BF92CF92DF9238
:1019F000EF92FF920F931F93CF93DF93FC018281AD
:101A000080FF03C0BB24BA9402C0BB24B3942FE56B
:101A1000E22E22E0F22E01E612E0C0E0D0E0F80172
:101A200031971082F7011082F801108294E0C92EDC
:101A3000D12CA12C809174018A0D87FD805F082E26
:101A4000000C990BC817D90791F480915D028C9D09
:101A5000A0018D9D500D112455954795559547959D
:101A6000970160915C0280915B020E94AF0AAB0C0F
:101A7000F1E0CF1AD108F1F6219683E0E80EF11CCF
:101A80000D5F1F4FC031D10551F60E94290B809187
:101A9000740191E0B91206C0811102C08FE006C046
:101AA000815004C090E001968F7099278093740153
:101AB000DF91CF911F910F91FF90EF90DF90CF902A
:101AC000BF90AF900895EF92FF920F931F93CF9323
:101AD000DF9380E090E0FC01E15AFD4F118210821B
:101AE0001282039680339105B1F78FE5E82E82E0EC
:101AF000F82E01E612E0C0E0D0E080917301082EDC
:101B0000000C990BC817D90794F080910101082E99
:101B1000000C990B8C179D0754F0970140915D02C2
:101B200060915C0280915B020E94AF0A07C0F801DD
:101B300031971082F7011082F80110822196F3E0AC
:101B4000EF0EF11C0D5F1F4FC031D105B1F60E94A1
:101B5000290B8091000190917301980F909373016C
:101B600020910101280F20930101121614F49F30D7
:101B70001CF0819580930001DF91CF911F910F910F
:101B8000FF90EF900895EF92FF920F931F93CF93E2
:101B9000DF93EC012C813D812F5F3F4F2170332774
:101BA0003D832C838FE5E82E82E0F82E10E005E5DA
:101BB000812F86954C815D81480F511D842F817046
:101BC000970140915D0260915C02809F802D1124FD
:101BD0000E94AF0A1F5F83E0E80EF11C103141F74D
:101BE000DF91CF911F910F91FF90EF900C94290BF3
:101BF000EF92FF920F931F93CF93DF937C01CFE57A
:101C0000D2E000E010E0F7018481083011051CF4F7
:101C1000882339F002C0811104C09E0140915D0209
:101C200002C09E0140E060915C0280915B020E94D4
:101C3000AF0A0F5F1F4F23960031110521F70E9455
:101C4000290BF701248130E02F5F3F4F21703327AC
:101C50002483DF91CF911F910F91FF90EF90089512
:101C6000EAE5F2E080818E7F8083608171818281EC
:101C700093810E94D40A10927E012FEF80E792E0B8
:101C8000215080409040E1F700C000000C94290BE7
:101C900060915A02669570E04BE050E083E091E07D
:101CA0000E94D32A892B19F481E080937E010E943F
:101CB000661E9093770180937601089590915A0261
:101CC00090FF35C09170811102C0926006C08532CC
:101CD00010F0986402C0880F982B90935A026623E4
:101CE00051F060915A0270915B0280915C02909178
:101CF0005D020E94D40A60915A02669570E04BE042
:101D000050E083E091E00E94D32A892B19F01092D1
:101D10007E0102C00E94480E81E0809379014091CB
:101D20005D0260915C0280915B020C94C70C089587
:101D3000682F90915A02969581E0890F853208F0BC
:101D400081E00C945E0E81E00C94980E682F9091C7
:101D50005A0296958FEF890F09F484E20C945E0E77
:101D600081E00C94A60E61E00C945E0EEAE5F2E0D0
:101D700080818160808386950C94B30E80915A0295
:101D800080FD0C94300E0C94B60E60E00C945E0E48
:101D900080917C01811133C080912B0281608093FE
:101DA0002B020E94BE1C811104C00E944B1D0E9488
:101DB000F00A0E94D00A60935A0270935B028093EB
:101DC0005C0290935D026E7F61F40E94F00A0E94B3
:101DD000D00A60935A0270935B0280935C029093E6
:101DE0005D020E94BD0A10927E0180915A0280FF1E
:101DF00003C086950E94C50E81E080937C01089502
:101E00000F931F93CF93DF9380917E01882309F472
:101E10008CC080917D01E0915A02E695E81BE09329
:101E20007801823049F4F0E0EC57FD4FE491CE2F79
:101E3000D0E005E71BE049C0863049F4F0E0EF57F9
:101E4000FD4FE491CE2FD0E009E81BE03EC0893081
:101E500051F4E695F0E0E258FD4FE491CE2FD0E04A
:101E60000AEC1CE032C08F3051F4E695F0E0E55802
:101E7000FD4FE491CE2FD0E004EF1CE026C0853169
:101E800049F4F0E0E858FD4FE491CE2FD0E003E6AE
:101E90001DE01BC0883181F0833239F4E6E7F2E0BF
:101EA000C591D49109E91BE010C0843251F4C4EF0C
:101EB000D1E008EF1DE009C0C8EED3E003EC1DE05F
:101EC00004C0C0EDD7E00EEA1AE0809179018823C2
:101ED00089F0109279010E94661E9E01209530952E
:101EE000820F931F909377018093760110927B016C
:101EF00010927A0180917601909177010E94721E72
:101F00008C179D0790F0E0917601F0917701CE0F4C
:101F1000DF1FD0937701C093760186E791E0F80147
:101F2000DF91CF911F910F910994DF91CF911F9174
:101F30000F9108952EB1342F309523233EB1432BBA
:101F40003FB7F894FC01680F791FE617F70789F08F
:101F5000819198E04EB9000000C087FF2EB9880F2C
:101F6000000000C000C000C02EB900C09A9591F7D3
:101F7000ECCF3FBF08952DB1242B2DB99B01220F2B
:101F8000331F620F731F0E949A0F87EC90E0019736
:101F9000F1F700C00000089544E00C94BB0F0F93CC
:101FA0001F93CF93DF93C62FD42F022FFC01828182
:101FB00010E2160F8823B9F0609381010E94661E1B
:101FC0009093800180937F01183008F042C0C77061
:101FD00081E001C0880FCA95EAF7DF91CF911F9188
:101FE0000F910C947113183048F481E0962F97707C
:101FF00001C0880F9A95EAF70E94781380918101B9
:102000008C1327C080917F01909180010E94721EE5
:10201000883C9105F0F4C0E2CD0FC83048F481E06F
:102020009D2F977001C0880F9A95EAF70E9471134F
:10203000802F0E946913C83060F4D77081E001C01E
:10204000880FDA95EAF7DF91CF911F910F910C94E9
:102050007813DF91CF911F910F9108959C01CB01CF
:10206000203F4CE5340719F178F4283D4CE534075E
:10207000B9F0293D4CE5340731F1273D3C4531F5B8
:1020800026E241EE61EE0FC0223F4CE53407B9F085
:1020900090F0233F3C45D1F427E246EE66EE03C0C4
:1020A00027E245EE65EE0E94CF0F80E0089526E21C
:1020B00040EE60EEF8CF27E244EE64EEF4CF26E285
:1020C00042EE62EEF0CF28E241E0ECCF10928101C7
:1020D00081E0089590938701809386010895E091AF
:1020E0008601F0918701309721F00190F081E02D79
:1020F000099480E00895E0918601F091870130977E
:1021000099F020912001222359F02091950227FF78
:1021100007C0DC012C9111962C93119725E02C938C
:102120000280F381E02D09940895E0918601F091F9
:102130008701309739F022E0DC012C930480F5818F
:10214000E02D099408952091840130918501821732
:10215000930771F09093850180938401E09186014B
:10216000F0918701309721F00680F781E02D0994E6
:10217000089520918201309183018217930771F0B5
:102180009093830180938201E0918601F091870111
:10219000309721F00084F185E02D0994089585B7EA
:1021A000806885BF85B7806885BF089508950895C4
:1021B0000C94D71008950C94DA100E94CF100E944E
:1021C000D6100C94D81081E008950E945D1E0E94E4
:1021D000FB080E94321F0E946F220E94C80E0C94BE
:1021E000DB104F925F927F928F929F92AF92BF923D
:1021F000CF92DF92EF92FF920F931F93CF93DF93D3
:10220000CDB7DEB72A970FB6F894DEBF0FBECDBFAD
:102210000E9445090E94E310811111C08FEF89834C
:102220008A831B820E94661E8160782F9D838C8327
:1022300049815A816B818D810E94AF1157C099E805
:10224000C92E91E0D92E00E010E0AA24A394B12C6D
:10225000702E802F0E94F1084C01F60141905190A0
:102260006F01482659264114510431F40F5F1F4F66
:102270000530110569F7D2CF80912B0281FD0E94B4
:10228000FA0820E030E07501022E02C0EE0CFF1CBF
:102290000A94E2F7C70184219521892B09F12E8345
:1022A0007F828E209F2091E0892809F490E0988712
:1022B0000E94661E8160782F9A8789874E815F8190
:1022C00068858A850E94AF11000F111FF801E7573A
:1022D000FE4F80819181E826F926F182E08206C0D6
:1022E0002F5F3F4F2F30310571F6C0CF0E94D521AF
:1022F000109188010E946F101817D9F00E946F107A
:10230000809388012A960FB6F894DEBF0FBECDBF2A
:10231000DF91CF911F910F91FF90EF90DF90CF90C1
:10232000BF90AF909F908F907F905F904F900C9454
:1023300024042A960FB6F894DEBF0FBECDBFDF91FE
:10234000CF911F910F91FF90EF90DF90CF90BF90B2
:10235000AF909F908F907F905F904F900895CF9314
:10236000DF93CDB7DEB72B970FB6F894DEBF0FBE65
:10237000CDBF4F83588769877A878B87DE01119697
:1023800086E0FD0111928A95E9F785E0FE01379616
:1023900001900D928A95E1F749815A816B817C8188
:1023A0008D819E810E9403192B960FB6F894DEBF93
:1023B0000FBECDBFDF91CF910895FC018081918147
:1023C0000E94CF1B0895882309F41AC18238C1F4F2
:1023D0000E946F1081FD14C169E380910E019091FC
:1023E0000F010E94B21D0E945A1C2FEF81EE94E053
:1023F000215080409040E1F700C0000069E319C01F
:102400008338F9F40E946F1080FDFAC063E5809173
:102410000E0190910F010E94B21D0E945A1C2FEFD5
:1024200081EE94E0215080409040E1F700C0000030
:1024300063E580910E0190910F010E94BD1D0C94E7
:102440005A1C8438C1F40E946F1082FDD9C067E421
:1024500080910E0190910F010E94B21D0E945A1CA2
:102460002FEF81EE94E0215080409040E1F700C0D2
:10247000000067E4DECF9CEF980F913A40F4682F9C
:1024800080910E0190910F010E94B21DD8CF90E271
:10249000980F983050F4877091E001C0990F8A9599
:1024A000EAF7892F0E94111CCACF9BE5980F933041
:1024B00070F4853A29F0863A31F083E890E005C05F
:1024C00081E890E002C082E890E00C94A31098E5C7
:1024D000980F973108F08EC0883A09F445C0893AC0
:1024E00009F445C08A3A09F445C08B3A09F445C05D
:1024F0008C3A09F445C08B3B09F445C08C3B09F488
:1025000045C08D3A09F445C0803B09F445C08E3A78
:1025100009F445C08F3A09F445C0813B09F445C030
:10252000823B09F445C0833B09F445C0843B09F470
:1025300045C0853B09F445C0863B09F445C0873B4F
:1025400009F445C0883B09F445C0893B09F445C0FE
:102550008D3B09F445C08E3B09F445C08A3B09F424
:1025600045C080E090E044C082EE90E041C089EE3A
:1025700090E03EC08AEE90E03BC085EB90E038C032
:1025800086EB90E035C083EB90E032C084EB90E0C6
:102590002FC087EB90E02CC08CEC90E029C08DEC34
:1025A00090E026C083E891E023C08AE891E020C053
:1025B00082E991E01DC084E991E01AC081E292E0D5
:1025C00017C083E292E014C084E292E011C085E279
:1025D00092E00EC086E292E00BC087E292E008C073
:1025E0008FE690E005C080E790E002C08AE292E0CA
:1025F0000C94B910803F20F00E94DD200C94CA2179
:102600000895882309F464C0823879F40E946F1019
:1026100081FF5EC069E380910E0190910F010E94DD
:10262000B21D0E945A1C69E310C08338B1F40E94A5
:102630006F1080FF4DC063E580910E0190910F01F6
:102640000E94B21D0E945A1C63E580910E01909178
:102650000F010E94BD1D0C945A1C843879F40E940D
:102660006F1082FF35C067E480910E0190910F01D9
:102670000E94B21D0E945A1C67E4E7CF9CEF980F9E
:10268000913A10F4682FE1CF90E2980F983050F40F
:10269000877091E001C0990F8A95EAF7892F0E940F
:1026A000171CD9CF9BE5980F933020F480E090E081
:1026B0000C94A31098E5980F973120F480E090E0F7
:1026C0000C94B910803F20F00E9445210C94CA213F
:1026D0000895CF93C82F0E94E3118C2FCF910C94B3
:1026E0000113882321F00E94111C0C945A1C089598
:1026F000882321F00E94171C0C945A1C08954F92B5
:102700005F926F927F92BF92CF92DF92EF92FF9291
:102710000F931F93CF93DF937C01D62FC72FFC011C
:10272000058102950F70128111110E942E1C0E94CA
:10273000071C882379F0112369F080E28D0F88301F
:1027400048F082E00E94A51C0E94071C91E0B82E70
:10275000B92601C0B12CCC2EC2948FE0C822D12C56
:10276000F601E859FF4F0C94B32A8C2F807FCF706D
:10277000882311F0C295C07F112399F0CC2309F46E
:10278000D0C180E28D0F883010F0D11104C08C2FA1
:102790000E94111C03C08C2F0E94211C0E945A1CF5
:1027A000C0C18D2F0E940113CC2309F403C280E223
:1027B0008D0F883010F0D11104C08C2F0E94171C8F
:1027C00003C08C2F0E94271C0E945A1CF3C18C2F1F
:1027D000807FCF70803211F0C295C07FDD2319F069
:1027E000D130C9F022C0112371F0002341F0013033
:1027F00031F40E94411C8C2B0E94471CDBC10E94BB
:10280000411C8C2B46C1002319F0013009F4D2C1C0
:102810000E94501C18C0112321F0063008F0CAC1D4
:102820000EC0053008F0C6C10EC0112351F00023C0
:1028300031F0F701858180FF74C18F7085838C2F03
:1028400028C101117FC18C2F2AC18C2F86958695B6
:10285000837090E0009719F0019761F0ABC11123EC
:1028600021F08D2F9C2F937002C080E090E00E9499
:10287000A310B0C1112321F08D2F9C2F937002C0A3
:1028800080E090E00E94B910A5C11123F9F0D53F76
:1028900051F0D63F71F0D43FA9F480918F0290910E
:1028A000900281600BC080918F02909190028260B3
:1028B00005C080918F029091900284609093900265
:1028C00080938F028D2F0E94DD201EC0D53F51F0D6
:1028D000D63F71F0D43FA9F480918F02909190027D
:1028E0008E7F0BC080918F02909190028D7F05C0EA
:1028F00080918F02909190028B7F909390028093B1
:102900008F028D2F0E9445210E94CA2163C18C2F06
:10291000837009F050C0111159C18D2F8295869591
:102920008770880F880F9D2F9F70492E512C612C26
:10293000712C082E04C0440C551C661C771C0A948C
:10294000D2F7D4FF14C00FE010E020E030E0B9016E
:10295000A80104C0440F551F661F771F8A95D2F740
:10296000CB01BA01609570958095909503C060E0A9
:1029700070E0CB01C695C695C370D0E0C230D105DA
:1029800061F0C330D10581F0642975298629972922
:10299000219771F00E94481A19C164297529862966
:1029A00097290E945A1A12C10E94481AC301B20103
:1029B0000E94361A0BC1112319F08C2F817001C0AF
:1029C0008695882309F402C18D2F8295869587709C
:1029D000880F880F9D2F9F70492E512C612C712CD0
:1029E000082E04C0440C551C661C771C0A94D2F7B0
:1029F000D4FF14C00FE010E020E030E0B901A801DE
:102A000004C0440F551F661F771F8A95D2F7CB016C
:102A1000BA01609570958095909503C060E070E074
:102A2000CB01C695C695C3704C2F50E0423051057E
:102A300069F04330510589F0642975298629972961
:102A40004130510571F00E940E1BC0C064297529E8
:102A5000862997290E94201BB9C00E940E1BC30122
:102A6000B2010E94FC1AB2C08D2F90E0FC01E05E22
:102A7000F109E531F10508F050C0E858FF4F0C941A
:102A8000B32ADF708C2F8F71112331F00E94951AB9
:102A90008D2F0E9471138EC00E94B61A8D2F0E9436
:102AA000781388C0112341F0053008F083C08C2FC3
:102AB0008F710E94DB1A7EC0063008F07BC0F7CF12
:102AC000112339F08C2F8F710E94951A73C0112336
:102AD000C9F38C2F8F710E94B61A6CC0112329F094
:102AE0008C2F8F710E94801A65C00E947B1A62C071
:102AF000112349F0CF718C2F0E94951A63E08C2F1F
:102B00000E94901C57C081E00E94A51C023008F46E
:102B100051C082E00E94A51C4DC0112331F000235A
:102B200089F28D2F0E94E31145C0002391F2D93321
:102B300049F45FEF67EE73E0515060407040E1F799
:102B400000C000008D2F0E94011334C04C2F4F7025
:102B50006D2FC7010E943E060E94A7193BC01111AC
:102B600039C0CF70D0E0C230D10599F03CF4209745
:102B700069F02197F9F40E94A9222CC0C430D10534
:102B800071F054F02597B1F480E00AC00E948C22C5
:102B900021C00E94E8221EC00E94EF221BC085E0D7
:102BA0000E94122317C04C2F4F706D2FC7010E9437
:102BB000410610C088E0C816D10441F05CF0EAE09C
:102BC000CE1AD108F2E0CF16D10420F40E946F1083
:102BD0000E942404BB20F1F00E94031C80FD1AC057
:102BE000F70112820E94FD1B0E94951AC7010E94E4
:102BF00018160E94FD1BDF91CF911F910F91FF903E
:102C0000EF90DF90CF90BF907F906F905F904F904C
:102C10000C94B61ADF91CF911F910F91FF90EF9016
:102C2000DF90CF90BF907F906F905F904F9008950E
:102C30000F931F93CF93DF93EC01888199812B81B0
:102C40003C81232BB9F09F3F11F48F3F99F0CE01C7
:102C50000E943604882371F0688179818A810E94FC
:102C6000DA1B8C010E94321B0E94331AB801CE017C
:102C70000E947F13DF91CF911F910F9108950E94C1
:102C80002E1C0E943E1C0E945A1C0E9463220E941D
:102C9000CA2180E090E00E94A31080E090E00C94B4
:102CA000B91080910E0190910F010E94C81D0C94E3
:102CB0003F160E941E1C0C945116E92FE295EF70EE
:102CC000F0E03297EE30F105B0F4E357FF4F0C948B
:102CD000B32A803F91F018F4803E68F40EC0843F20
:102CE00051F40BC0803E48F0813F29F406C093FBAD
:102CF000882780F9089580E0089581E008950E9472
:102D0000CF1B0E945D160895CF93DF9300D000D0B3
:102D10001F92CDB7DEB70F900F900F900F900F90CE
:102D2000DF91CF910895CF93DF9300D000D000D0F2
:102D3000CDB7DEB726960FB6F894DEBF0FBECDBF77
:102D4000DF91CF9108951F93CF93DF93C0919401AA
:102D500016E080919501C81799F0D0E01C9FF00112
:102D60001D9FF00D1124EA56FE4F40815181628172
:102D70007381848195810E9493162196C770E9CF53
:102D8000DF91CF911F9108954091C6015091C701E5
:102D90006091C8017091C9018091CA019091CB01E5
:102DA0000C9493168091CB0182958F7009F054C0DA
:102DB0008091C801882309F44FC080919401A091AB
:102DC00095016091C6017091C7014091C901509170
:102DD000CA01B6E08A1709F43FC090E041155105D9
:102DE000C1F17F3F11F46F3FA1F1B89FF001B99F8E
:102DF000F00D1124EA56FE4F218172132AC0208162
:102E0000621327C02281211124C023813481241719
:102E1000350710F421503109241B350B283C3105AE
:102E2000C0F42091CB012F7020612093CB0126E0CC
:102E3000289FF001299FF00D1124E556FE4F808157
:102E40008F708061808386EC91E00E9418160C944C
:102E5000A31601968770BECF0895CF92DF92EF92AE
:102E6000FF920F931F93CF93DF93CDB7DEB7629797
:102E70000FB6F894DEBF0FBECDBF8C0185E0F80120
:102E8000DE011D9601900D928A95E1F7D8014C91D3
:102E900011965C91119712966C9112971396CD90A2
:102EA000DC9014973091C6017091C7018091C901DF
:102EB0009091CA01009709F46BC17F3F19F43F3F1D
:102EC00009F466C1E090C801EE2009F4C0C0209169
:102ED000CB01C816D90628F0F601E81BF90BCF0183
:102EE00004C0809590958C0D9D1DFF24F394883C23
:102EF000910578F0F12C207F09F0C6C07C2DD98A8D
:102F0000C88A89890E94841686EC91E00E9418166E
:102F1000B1C0822F807F09F046C0751314C03413EE
:102F200012C0611110C02F7020612093CB010E944C
:102F3000C41686EC91E00E9418168091CB01D8014E
:102F400015968C932EC0CD2819F15F3F11F44F3F99
:102F5000F9F0F62E61111CC0809194012091950129
:102F600036E0821709F45AC090E0389FF001399F8B
:102F7000F00D1124EA56FE4F7181571306C070817F
:102F8000471303C07281711103C001968770E9CFA6
:102F9000F62E662309F427C18091CB0181608093CE
:102FA000CB01F12C20C1751308C0341306C0611188
:102FB00004C08091CB01D801C3C04D875E878D8549
:102FC0009E856A8B0E947F166A898823E1F16623B9
:102FD000D1F12091CB01822F82958F7090E00297E2
:102FE00074F08091C6019091C70198878F831986EC
:102FF000DB86CA862C87CE0107960E94181686E0CB
:10300000F801A6ECB1E001900D928A95E1F70E94DB
:10301000D2160E94C416FF24F394E5C04D875E8744
:103020008D859E850E94CF1B292F22952F7030E021
:10303000223031050CF0CBC09F7009F0C5C0805E16
:10304000883008F4D0C0C8010E941816E4CFC81612
:10305000D90608F453C0F601E81BF90BCF01883CF0
:10306000910508F450C0F12C7C2DD98AC88A898931
:103070000E948416E6ECF1E086E0DF011D928A955D
:10308000E9F70E94C416AFC0751314C0341312C000
:10309000611110C08091CB01F8018583C8010E94A5
:1030A000181686E0E6ECF1E0DF011D928A95E9F75B
:1030B000FE2C99C04D875E878D859E856A8B0E9408
:1030C0007F166A89882309F4BECF662309F4BBCF33
:1030D0002091CB01822F82958F7090E002970CF4A3
:1030E0008ECF8091C6019091C7019A8389831B82FC
:1030F000DD82CC822E83CE0101967FCF8095909584
:103100008C0D9D1DACCFF62E662309F49CCF751354
:103110002EC034132CC02091CB0120FD1FC0822F64
:1031200082958F70D9F0D80115962C9315978F3012
:1031300049F08F5F982F9295907F822F8F70892B07
:1031400015968C93C8010E94181686E0F801A6EC2B
:10315000B1E001900D928A95E1F793CF86E0F801F6
:10316000A6ECB1E001900D928A95E1F73CC04D8745
:103170005E878D859E850E947F16811140CF80914C
:10318000CB0181608093CB01C8010E9418162BC02F
:10319000662309F458CF4D875E878D859E850E94F2
:1031A0007F16F82E882309F44ECF86E0F801A6ECAE
:1031B000B1E001900D928A95E1F786EC91E00E94D2
:1031C000DD110E94D2165DCF811139CF0CC02430A1
:1031D00031050CF038CF9F7009F431CFF80195819B
:1031E000907F09F02CCF8F2D62960FB6F894DEBF3A
:1031F0000FBECDBFDF91CF911F910F91FF90EF9048
:10320000DF90CF9008951F93CF93DF93CDB7DEB7B4
:103210002C970FB6F894DEBF0FBECDBF4F835887F3
:1032200069877A878B879C87CE0107960E942D1726
:10323000882369F08F8198852A853B85232BF1F1BE
:103240009F3F09F063C08F3F09F060C037C086E040
:10325000FE013796DE01119601900D928A95E1F7F5
:103260006F817885EA85FB85309741F17F3F11F4C6
:103270006F3F21F12091950130E0C90101968770DF
:1032800099274091940150E08417950709F447C0AD
:1032900069837A83FD83EC8396E0929FD001939FAC
:1032A000B00D1124AA56BE4FFE01319601900D9229
:1032B0009A95E1F7809395010E94A31616E08091FC
:1032C0009401909195018917C1F1189FC0011124B3
:1032D0008A569E4F0E942D17882379F1E091940120
:1032E0001E9FF0011124EA56FE4F408151816281F8
:1032F0007381848195810E9493168091940190E05E
:1033000001968770992780939401D9CF4F81588572
:1033100069857A858B859C850E949316CFCF0E9404
:1033200059161092950110929401E6ECF1E086E0B6
:10333000DF011D928A95E9F7C1CF2C960FB6F8945C
:10334000DEBF0FBECDBFDF91CF911F910895EF92E9
:10335000FF920F931F93CF93DF938C01892B09F476
:103360006CC0F12CEE24E394E8012196F8018491DD
:10337000843740F4843008F051C0813081F08230CD
:1033800019F15BC0853709F444C0A8F19CE7980F98
:10339000903708F052C08F770E94011341C00E5F32
:1033A0001F4FFE01C49180E28C0F883048F4C77033
:1033B0008E2D01C0880FCA95EAF70E94311C14C0F7
:1033C0008C2F0E94E3112DC00E5F1F4FFE01C49190
:1033D00080E28C0F883058F4C7708E2D01C0880FA2
:1033E000CA95EAF70E94371C0E945A1C1AC08C2FFB
:1033F0000E94011316C00E5F1F4FFE01C491CC2323
:1034000081F08FE99FE00197F1F700C00000C15003
:10341000F6CF0E5F1F4FFE01F49003C00E94E31130
:103420008E018F2D882309F49FCFEFE9FFE03197BC
:10343000F1F700C000008150F5CFDF91CF911F91CF
:103440000F91FF90EF90089508950C94241A0E9414
:10345000251A6093020270930302809304029093F2
:1034600005020C943F1608950C94271A0F931F938E
:103470000091020210910302209104023091050292
:10348000602B712B822B932B1F910F910C94271A79
:103490000F931F93009102021091030220910402E6
:1034A0003091050260237123822393231F910F9192
:1034B0000C94271A0F931F9300910202109103029C
:1034C00020910402309105026027712782279327FB
:1034D0001F910F910C94271A08950C946C1A0E9456
:1034E0006D1A6093FE017093FF0180930002909328
:1034F00001020C943F1660E070E0CB010C946F1A4F
:103500000F931F9341E050E060E070E08A019B015F
:1035100004C0000F111F221F331F8A95D2F7C90163
:10352000B8011F910F910C946F1A0F931F9341E0F4
:1035300050E060E070E004C0440F551F661F771F25
:103540008A95D2F78091FE019091FF01A09100022F
:10355000B09101028A019B01082B192B2A2B3B2BCE
:10356000C901B8011F910F910C946F1A0F931F930B
:1035700041E050E060E070E004C0440F551F661F5A
:10358000771F8A95D2F740955095609570958091F8
:10359000FE019091FF01A0910002B09101028A0109
:1035A0009B01082319232A233B23C901B8011F913A
:1035B0000F910C946F1A0F931F9341E050E060E05D
:1035C00070E004C0440F551F661F771F8A95D2F71D
:1035D0008091FE019091FF01A0910002B091010243
:1035E0008A019B01082719272A273B27C901B8010F
:1035F0001F910F910C946F1A0F931F930091FE016E
:103600001091FF012091000230910102602B712B7B
:10361000822B932B1F910F910C946F1A0F931F9372
:103620000091FE011091FF012091000230910102F2
:1036300060237123822393231F910F910C946F1A9F
:103640000F931F930091FE011091FF012091000242
:103650003091010260277127822793271F910F91D4
:103660000C946F1A08952FE0929F800D1124A82FBB
:10367000A695A695A695877051E001C0550F8A952D
:10368000EAF785E0A89FD001112420E030E070E047
:10369000F901EA0FFB1FE453FE4F4081CB01022EDC
:1036A00002C0969587950A94E2F7817099278195D3
:1036B00084278523842780832F5F3F4F2530310562
:1036C00039F708952FE0929F800D1124682F669599
:1036D00066956695982F977085E0689FB0011124D4
:1036E00040E050E080E0FA01E60FF71FE453FE4FA0
:1036F000208130E0092E02C0369527950A94E2F722
:1037000021703327042E01C0220F0A94EAF7822B7E
:103710004F5F5F4F4530510531F70895BF92CF920B
:10372000DF92EF92FF920F931F93CF93DF938C0161
:10373000C0900202D0900302E0900402F0900502D3
:103740008091FE019091FF01A0910002B0910102D1
:10375000C82AD92AEA2AFB2ACFE1D0E0D701C6013C
:103760000C2E04C0B695A795979587950A94D2F725
:1037700080FF07C0BC2EB8018C2F0E945C06019709
:1037800019F4219758F7B12C8B2DDF91CF911F9110
:103790000F91FF90EF90DF90CF90BF900895CF935F
:1037A000DF93EC010E948E1BBE010E945C06DF913C
:1037B000CF9108951F93CF93DF93EB0190919301E5
:1037C000992321F0CB010E94CF1B13C0882349F01D
:1037D000CB010E948E1B182F682FCE010E94331B35
:1037E00004C0CB010E94621B182FBE01812F0E94D2
:1037F0005C06DF91CF911F91089580910602859517
:103800008595859508958091060287700895909119
:103810000602977081E009F480E0089580912A0201
:10382000089590912A02892B80932A020895809509
:1038300090912A02892380932A02089510922A02E5
:10384000089590912902892B8093290208958095EB
:1038500090912902892380932902089510922902C8
:10386000089590912802892B8093280208958095CD
:1038700090912802892380932802089510922802AB
:10388000089580910702089508950C94441C909126
:103890000702981721F0809307020C94451C0895A5
:1038A00080910702882329F01092070280E00C948F
:1038B000451C0895E0910E01F0910F0180912A02BC
:1038C0008083E0910E01F0910F0190818091290297
:1038D000892B8083E0910E01F0910F0190818091FE
:1038E0002802892B808380910702882381F0E09150
:1038F0000E01F0910F019081892B808380910E0140
:1039000090910F010E944D1D81110E94501C8091C9
:103910000E0190910F010C947B1008950C948D1C56
:1039200098E0899F90011124262B209306020E9483
:10393000951A809106028595859585950C948E1C27
:103940001092060280E00C948E1C20910602809555
:10395000822380930602982F977079F430E0482FE5
:10396000082E000C550B2417350739F085958595E1
:1039700085950E94B61A0C94A01C089580E090E0F2
:103980000E94EE2A21E08D3E9E4F09F020E0822F1A
:10399000089582E090E00C94E02A682F82E090E0A5
:1039A0000C94F42A83E090E00C94E02A682F83E0E2
:1039B00090E00C94F42A84E090E00C94E02A682FC4
:1039C00084E090E00C94F42A86E090E00C94E02AE5
:1039D000682F86E090E00C94F42AAB01BC018FE0E4
:1039E00090E00C94062BAB01BC0183E190E00C94B9
:1039F000062B60E070E0CB010C94F31C60E070E0FB
:103A0000CB010E94ED1C0C94F91C6DEE7EEF80E062
:103A100090E00E94122B60E082E090E00E94F42A85
:103A200060E083E090E00E94F42A1092020210927B
:103A30000302109204021092050260E084E090E01C
:103A40000E94F42A60E085E090E00E94F42A60E0A1
:103A500086E090E00E94F42A6FEF87E090E00E94F9
:103A6000F42A40E050E0BA0188E090E00E94062B82
:103A700060E08DE090E00E94F42A40E050E0BA015E
:103A800088E190E00E94062B60E087E190E00E94D0
:103A9000F42A0C94FE1C0C94051DFC0132968091B6
:103AA0002001882331F08091950287FF02C09EE1BA
:103AB00001C096E080E0915028F021912223D9F3B3
:103AC0008F5FF9CF08959C01FC0132969FEF80E053
:103AD0004191461789F09F3F19F4411101C0982F79
:103AE0008F5F8630A9F79F3F39F0F901E90FF11D8B
:103AF00097FDFA95628308950895FC013296089621
:103B00002081261301C010823196E817F907C1F70A
:103B10000895262F2695269526952E3168F4FC01CA
:103B2000E20FF11D677021E030E001C0220F6A95BD
:103B3000EAF78281282B22830895262F2695269541
:103B400026952E3170F4FC01E20FF11D677021E023
:103B500030E001C0220F6A95EAF720958281282380
:103B60002283089520912001222329F0209195029B
:103B700027FD0C94891D0C94631D209120012223A4
:103B800029F02091950227FD0C949D1D0C947D1D1C
:103B900020912001FC013296222331F08091950280
:103BA00087FF02C08EE101C086E0DF011D928A9589
:103BB000E9F7089508950C94DA1D0E94DB1D8091A9
:103BC0009C02843061F110922C0220E488E190E0A4
:103BD0000FB6F894A895809360000FBE2093600004
:103BE00080E00E94AB0380E00E9424040E94DB1D61
:103BF00083B7817F846083BF83B7816083BF7894FC
:103C0000889583B78E7F83BF0FB6F894A89580916F
:103C10006000886180936000109260000FBE08957C
:103C200008950895CF930E94101E0E9445090E9496
:103C3000111EC0E08C2F0E94F108892B29F4CF5F60
:103C4000C530C1F780E001C081E0CF9108950895AB
:103C50000C94271E0E9459160E946F220E946F101A
:103C60000E9424040C94281E1F920F920FB60F92EC
:103C700011248F939F93AF93BF9380912C02811156
:103C800013C08091910290919202A0919302B09101
:103C900094024196A11DB11D8093910290939202CE
:103CA000A0939302B0939402BF91AF919F918F9193
:103CB0000F900FBE0F901F90189582E084BD93E087
:103CC00095BD9AEF97BD80936E0008952FB7F89435
:103CD0008091910290919202A0919302B0919402EE
:103CE0002FBF0895CF92DF92EF92FF920F931F9311
:103CF0002FB7F894409191025091920260919302F3
:103D0000709194022FBF6A017B01EE24FF248C0185
:103D100020E030E0C016D106E206F30610F4415070
:103D200051099A01281B390BC9011F910F91FF906E
:103D3000EF90DF90CF90089578941F920F920FB676
:103D40000F9211248F939F93AF93BF938091910211
:103D500090919202A0919302B09194020196A11DBC
:103D6000B11D8093910290939202A0939302B0931D
:103D70009402BF91AF919F918F910F900FBE0F90C2
:103D80001F90189581E08093E00080E28093D80036
:103D90001092C9008FE19EE40197F1F700C0000086
:103DA00087E090EBDC018093A5029093A602A0939C
:103DB000A702B093A8029CE088E10FB6F894A895FA
:103DC000809360000FBE90936000FFCFAF92BF92D0
:103DD000CF92DF92EF92FF920F931F93CF93C0E0A9
:103DE000CC24C394D12CE82EF12C8C2F0E94F10806
:103DF0005C0100E010E09601002E02C0220F331F8C
:103E00000A94E2F72A213B21232B31F40F5F1F4F45
:103E10000F30110581F70AC0602F7C2F80E00E94CF
:103E20004206E816F90691F781E004C0CF5FC5307D
:103E3000E1F680E0CF911F910F91FF90EF90DF901E
:103E4000CF90BF90AF900895CF93C82F8CE20E947F
:103E5000E61E882321F08C2FCF910C94E61E80E083
:103E6000CF910895CF930E94BE1C811102C00E9481
:103E70004B1DC5E6C15049F00E9445098FE39CE9FE
:103E80000197F1F700C00000F5CF89E20E94241FDE
:103E900081110FC18AE20E94241F81110E944B1DD3
:103EA00085E00E94241F81110E94C21E0E94C91C2D
:103EB00080932B0287E00E94241F8823A9F18BE1C5
:103EC0000E94241F882351F080912B0281FB22271E
:103ED00020F991E0922790FB81F90EC08EE00E94BC
:103EE000241F882361F080912B0282FB222720F976
:103EF00091E0922790FB82F980932B0215C080E11C
:103F00000E94241F90912B02882341F093FB2227CB
:103F100020F981E0822780FB93F904C0892F8095E6
:103F200080FB90F990932B0280912B020E94CD1C74
:103F30000E94DB1C90E0909396028093950280EEA5
:103F40000E94241F882341F080919502982F90951C
:103F500090FB80F98093950289E30E94241F8823B7
:103F600059F08091950281FB222720F991E0922758
:103F700090FB81F98093950282EE0E94241F882392
:103F800059F08091950282FB222720F991E0922737
:103F900090FB82F98093950286EE0E94241F88236D
:103FA00059F08091950283FB222720F991E0922716
:103FB00090FB83F98093950283EE0E94241F88234F
:103FC00059F08091950284FB222720F991E09227F5
:103FD00090FB84F98093950285E30E94241F882337
:103FE00059F08091950285FB222720F991E09227D4
:103FF00090FB85F98093950281E30E94241F88231A
:1040000059F08091950286FB222720F991E09227B2
:1040100090FB86F98093950281E10E94241F8823FA
:1040200059F08091950287FB222720F991E0922791
:1040300090FB87F980939502809195020E94DF1C86
:1040400087E20E94241FC82F8EE10E94241F811145
:10405000C2608FE10E94241F8111C46080E20E942F
:10406000241F8111C86081E20E94241F8111C06158
:1040700082E20E94241F8111C06283E20E94241FF9
:104080008111C06484E20E94241F882311F0C0685B
:1040900002C0CC2329F08C2F0E94D61C6C2F03C0A9
:1040A0000E94D21C682F70E080E090E0CF910C94C9
:1040B000341ACF9108958091300280FF0BC0609137
:1040C000130185E0689FB00111247595679575957A
:1040D00067952BC081FF09C06091130185E0689F3F
:1040E000B00111247595679520C082FF07C06091CB
:1040F000130185E0689FB001112417C090912F0231
:104100009923D1F060911201961788F7209113013D
:1041100085E0289F90011124929FA001939F500D4C
:10412000112470E0CA010E947D2A6038710540F4B4
:104130006115710539F002C065E070E0862F0895C1
:104140008FE7089581E008958091300280FF08C0D4
:104150006091110170E0759567957595679521C01F
:1041600081FF06C06091110170E07595679519C0D7
:1041700082FF04C06091110170E010C090912F0285
:104180009923C1F0609110019617A0F78091110159
:10419000899FC001112470E00E947D2A603871055A
:1041A00028F46115710521F0862F08958FE7089591
:1041B00081E0089561E070E0F4CF803F21F40E9437
:1041C0005B20819504C0813F29F40E945B2080938D
:1041D00034020895823F21F40E945B20819504C03F
:1041E000833F29F40E945B20809333020895893F26
:1041F00019F40E94A42005C08A3F31F40E94A42033
:1042000081958093350208958B3F21F40E94A4206C
:10421000819504C08C3F29F40E94A420809336022B
:104220000895843F21F480913202816017C0853F58
:1042300021F480913202826011C0863F21F4809186
:10424000320284600BC0873F21F480913202886083
:1042500005C0883F31F48091320280618093320240
:1042600008958D3F21F48091300281600BC08E3F14
:1042700021F480913002826005C08F3F29F4809143
:1042800030028460809330020895803F39F4809139
:10429000340287FF6CC01092340269C0813F29F458
:1042A000809134021816BCF362C090913302823FB1
:1042B00029F497FF5CC01092330259C0833F19F470
:1042C0001916CCF354C0893F41F480913502181679
:1042D0000CF04DC0109235024AC08A3F29F48091FB
:1042E000350287FF44C0F6CF8B3F39F48091360208
:1042F00087FF3DC0109236023AC08C3F29F480916E
:1043000036021816BCF333C0843F21F48091320288
:104310008E7F17C0853F21F4809132028D7F11C0BE
:10432000863F21F4809132028B7F0BC0873F21F4BE
:1043300080913202877F05C0883F31F4809132023C
:104340008F7E8093320213C08D3F21F48091300222
:104350008E7F0BC08E3F21F4809130028D7F05C08F
:104360008F3F29F4809130028B7F809330028091BF
:10437000330281110EC08091340281110AC08091F4
:104380003502811106C080913602811102C010925F
:104390002F02089581E392E00E9495100E94661E0C
:1043A00090932E0280932D0208951F93CF93DF9355
:1043B00080912D0290912E020E94721EAC0190916C
:1043C0002F02992321F02091140130E006C02091A2
:1043D00015018AE0289F900111244217530708F421
:1043E0006EC080913302C0913402D0913502109199
:1043F0003602811107C0C1115EC0D1115CC011111C
:104400005AC05DC09F3F19F09F5F90932F0218160E
:1044100024F40E945B20809333028091330287FF53
:1044200005C00E945B208195809333021C1624F402
:104430000E945B20809334028091340287FF05C084
:104440000E945B2081958093340240913302442383
:1044500079F030913402332359F025EB4203A00167
:104460001124509333023203C0011124909334027B
:104470001D1624F40E94A4208093350280913502F9
:1044800087FF05C00E94A4208195809335021116F4
:1044900024F40E94A420809336028091360287FF84
:1044A00005C00E94A420819580933602DF91CF91B0
:1044B0001F910C94CA219F3F09F0A6CFAECFDF9188
:1044C000CF911F910895E1E3F2E086E0DF011D92B4
:1044D0008A95E9F710922F021092300208950E94F7
:1044E000BE1C811102C00E944B1D0E94E41C8093DF
:1044F0009702282F269530E02630310524F0817070
:104500008A60809397028091970280FF02C086950F
:1045100001C080E00C94AB0320919702822F869516
:10452000482F50E04530510544F48F5F982F990F84
:10453000822F8170892B80939702809197028160EE
:10454000809397020E94E81C8091970286950C94B4
:10455000AB0380919702982F969591F09158990FFF
:104560008170892B809397028E7F91E009F490E00F
:104570008091970290FB80F9809397020E94E81C3B
:104580008091970286950C94AB038091970280FDF1
:1045900011C0816080939702813019F483E0809389
:1045A0009702809197020E94E81C8091970286955D
:1045B0000C94AB0308958091970280FF08C08E7F12
:1045C000809397020E94E81C80E00C94AB0308954E
:1045D0008091970280FD0C94DB220C94C52290916F
:1045E0009702892F86958F5F8F779170863028F498
:1045F000880F892B8093970202C090939702809135
:1046000097028E7F91E009F490E08091970290FBF1
:1046100080F9809397020E94E81C8091970286950A
:104620000C94AB03863008F085E0880F90919702D8
:104630009170892B809397028E7F91E009F490E02E
:104640008091970290FB80F9809397020E94E81C6A
:104650008091970286950C94AB0380915702089540
:104660000F931F93CF93DF9300D01F92CDB7DEB788
:104670008C010E94A025823011F0843021F584E065
:1046800089831B830A8382E08093E9008FEF9091F6
:10469000E800815095FD06C095ED9A95F1F7000070
:1046A0008111F5CF8091E80085FF0DC040E050E01A
:1046B00063E070E0CE0101960E94BD258091E80084
:1046C0008E778093E8000F900F900F90DF91CF913D
:1046D0001F910F910895CF93DF9300D01F92CDB714
:1046E000DEB720919C02243031F523E029838058E5
:1046F00091099B838A8382E08093E9008FEF9091F8
:10470000E800815095FD06C095ED9A95F1F70000FF
:104710008111F5CF8091E80085FF0DC040E050E0A9
:1047200063E070E0CE0101960E94BD258091E80013
:104730008E778093E8000F900F900F90DF91CF91CC
:104740000895CF93DF93EC010E94A025823011F0F1
:104750008430F9F482E08093E9009FEF8091E800D3
:10476000915085FD06C085ED8A95F1F70000911105
:10477000F5CF8091E80085FF0CC040E050E066E096
:1047800070E0CE010E94BD258091E8008E77809375
:10479000E800DF91CF910895CF93DF93EC010E9461
:1047A000A025823011F08430D9F580912001882332
:1047B00039F08091950287FF03C060E282E002C079
:1047C00068E081E08093E9008FEF9091E8008150EC
:1047D00095FD06C095ED9A95F1F700008111F5CF92
:1047E0008091E80085FF1CC080912001811105C0E7
:1047F00040E050E068E070E003C070E040E050E06E
:10480000CE010E94BD258091E8008E778093E8005C
:1048100080E2FE01A7E3B2E001900D928A95E1F7F4
:10482000DF91CF91089580919B02811109C00E9470
:1048300052270E94AF278091E20084608093E200BB
:10484000089510929B020895089508950C942A1ECD
:1048500042E061EC81E00E94CC2642E261EC82E021
:104860000C94CC2680919E02833009F460C030F411
:10487000813071F0823009F499C008958A3009F4CA
:1048800085C08B3009F46BC0893009F0A7C020C007
:1048900080919D02813A09F0A1C08091E800877F54
:1048A0008093E8008091A1029091A202892B21F4CB
:1048B00060E287E392E003C060E080E090E070E0B7
:1048C0000E9408268091E8008B778093E800089585
:1048D00080919D02813209F081C08091A102909166
:1048E000A202029708F07AC08091E800877F809347
:1048F000E8008091E80082FD05C080919C02811152
:10490000F8CF6CC02091F3008091F20090E0922BE0
:10491000029729F48091F1008B7F813021F48091FE
:10492000F100809357028091E8008B7753C080910B
:104930009D02813A09F052C08091A1029091A20299
:10494000892B09F04BC08091E800877F8093E800B5
:104950008091E80080FFFCCF8091200136C08091DB
:104960009D028132D9F58091A1029091A202892BFA
:10497000A9F58091E800877F8093E8000E940127D5
:1049800080919F02809320010C94591680919D0282
:10499000813221F58091E800877F8093E8000E94B2
:1049A00001278091A00280935802089580919D0272
:1049B000813AA1F48091E800877F8093E80080919C
:1049C000E80080FFFCCF809158028093F100809135
:1049D000E8008E778093E8000C940127089584B74F
:1049E000877F84BF0FB6F894A89580916000886196
:1049F00080936000109260000FBE80E88093610099
:104A0000109261000E94DD100E9452270E94AF2781
:104A10008091E20084608093E20078940E943E2AB4
:104A20000E94E51086E191E00E946A1080919C024C
:104A3000853069F40E94DD1D80919A028823B1F3CC
:104A40000E94121E882391F30E94A725EFCF0E9497
:104A5000F1100E94000FEACF0C942E25292F332746
:104A600023303105C9F064F42130310581F0223062
:104A7000310509F04CC08BE390E025EB34E04BC0EE
:104A80002132310521F12232310589F140C082E124
:104A900090E020EF34E03FC099278130910571F01C
:104AA0002CF4892BA1F5E1EBF4E00DC082309105E7
:104AB00041F0039761F5EDE8F4E005C0EFE9F4E0BB
:104AC00002C0E3E9F4E0849190E09F0124C0611505
:104AD000710541F061307105D1F489E090E020EE7C
:104AE00034E019C089E090E027EC34E014C061158F
:104AF000710541F06130710551F480EC90E022E0E5
:104B000035E009C080E490E022EC35E004C080E0AC
:104B100090E020E030E0FA01318320830895089589
:104B2000CF93C82F0E948F25C0935902CF9108952B
:104B300080919C02843011F081E0089582E0089514
:104B400080915902811102C00C949825089580E14A
:104B500089BD82E189BD09B400FEFDCF8091D800F6
:104B60008F7D8093D8008091E00082608093E00088
:104B70008091E00081FDFCCF0895CF92DF92EF920B
:104B8000FF920F931F93CF93DF93EC018B016A0188
:104B90000E942027811133C0C114D10439F0F601DD
:104BA00080819181081B190BC80FD91FE12CF12CB2
:104BB0000115110519F18091E80085FD16C080915D
:104BC000E8008E778093E800C114D10449F0F60123
:104BD00080819181E80EF91EF182E08285E00FC0AC
:104BE0000E942027882321F30AC089918093F10035
:104BF00001501109FFEFEF1AFF0ADACF80E0DF91D1
:104C0000CF911F910F91FF90EF90DF90CF9008957B
:104C10002091A3023091A4022617370748F06115AE
:104C2000710539F42091E8002E772093E80001C047
:104C3000B90140E061157105A9F120919C02222380
:104C400009F443C0253009F442C02091E80023FD57
:104C500040C02091E80022FD32C02091E80020FFF2
:104C6000E9CF4091F3002091F20030E0342BFC01B9
:104C7000CF016115710559F02830310540F481915B
:104C80008093F100615071092F5F3F4FF1CF41E0F8
:104C90002830310509F040E02091E8002E7720937C
:104CA000E800C8CF4111C9CF0AC080919C02882377
:104CB00061F0853061F08091E80083FD0AC0809149
:104CC000E80082FFF2CF80E0089582E0089583E05B
:104CD000089581E008952091A3023091A40226173F
:104CE000370748F06115710539F42091E8002E77F7
:104CF0002093E80001C0B901FC0120E061157105B5
:104D000091F180919C02882309F440C0853009F418
:104D10003FC08091E80083FD3DC08091E80082FDA6
:104D20002FC08091E80080FFE9CF2091F3008091AF
:104D3000F20090E0922B6115710559F088309105D1
:104D400040F424912093F10031966150710901964D
:104D5000F2CF21E0089709F020E08091E8008E77FB
:104D60008093E800CBCF2111CCCF0AC080919C0268
:104D7000882361F0853061F08091E80083FD0AC0EE
:104D80008091E80082FFF2CF80E0089582E00895EC
:104D900083E0089581E00895982F973058F5909317
:104DA000E900981739F07091EC002091ED005091D6
:104DB000F00003C0242F762F50E021FF19C030915E
:104DC000EB003E7F3093EB003091ED003D7F309360
:104DD000ED003091EB0031603093EB007093EC000C
:104DE0002093ED005093F0002091EE0027FF07C0C4
:104DF0009F5FD3CF8F708093E90081E0089580E0BA
:104E0000089580919D0287FF11C08091E80082FD86
:104E100005C080919C028111F8CF11C08091E800FB
:104E20008B770BC080919C02882349F08091E80029
:104E300080FFF8CF8091E8008E778093E800089596
:104E40002091E4003091E50095E64091EC00842F3C
:104E5000817040FF22C08091E80080FD1CC08091DD
:104E60009C02882391F0853091F08091EB0085FDC4
:104E700010C04091E4005091E5004217530729F318
:104E80009A01915011F784E0089582E0089583E03B
:104E9000089581E0089580E008954091E80042FF80
:104EA000DECF08950E94C0270E94C827E0EEF0E000
:104EB000808181608083E8EDF0E080818F7780835E
:104EC00019BCA7EDB0E08C918E7F8C9380818F7E92
:104ED000808310929B0208950F931F93CF93DF93CB
:104EE0000E94C0270E94C827C8EDD0E088818F7734
:104EF000888388818068888388818F7D888319BCB6
:104F000010929C021092980210929A0210929902AA
:104F100000EE10E0F80180818B7F808388818160C2
:104F2000888342E060E080E00E94CC26E1EEF0E081
:104F300080818E7F8083E2EEF0E0808181608083DB
:104F4000808188608083F80180818E7F8083888162
:104F500080618883DF91CF911F910F910895E8EDD3
:104F6000F0E080818F7E8083E7EDF0E080818160DA
:104F7000808384E082BF81E080939B020C946C2745
:104F8000E8EDF0E080818E7F80831092E20008954A
:104F90001092DA001092E10008951F920F920FB65E
:104FA0000F9211242F933F934F935F936F937F93AF
:104FB0008F939F93AF93BF93EF93FF938091E10003
:104FC00082FF0BC08091E20082FF07C08091E10068
:104FD0008B7F8093E1000E943D2A8091DA0080FF60
:104FE0001FC08091D80080FF1BC08091DA008E7FA7
:104FF0008093DA008091D90080FF0DC080E189BDE7
:1050000082E189BD09B400FEFDCF81E080939C025E
:105010000E94132405C019BC10929C020E942124F6
:105020008091E10080FF19C08091E20080FF15C0EF
:105030008091E2008E7F8093E2008091E2008061A7
:105040008093E2008091D80080628093D80019BCE0
:1050500085E080939C020E9425248091E10084FFDA
:1050600030C08091E20084FF2CC080E189BD82E1E4
:1050700089BD09B400FEFDCF8091D8008F7D80935B
:10508000D8008091E1008F7E8093E1008091E20062
:105090008F7E8093E2008091E20081608093E20045
:1050A00080919802882311F084E007C08091E3008A
:1050B00087FD02C081E001C083E080939C020E94D2
:1050C00026248091E10083FF29C08091E20083FFC4
:1050D00025C08091E100877F8093E10082E080938A
:1050E0009C02109298028091E1008E7F8093E100F3
:1050F0008091E2008E7F8093E2008091E2008061E7
:105100008093E20042E060E080E00E94CC26809143
:10511000F00088608093F0000E942424FF91EF91BA
:10512000BF91AF919F918F917F916F915F914F91BF
:105130003F912F910F900FBE0F901F9018951F92C7
:105140000F920FB60F9211242F933F934F935F93BB
:105150006F937F938F939F93AF93BF93CF93DF937F
:10516000EF93FF93C091E900CF708091EC00D82FAE
:10517000D17080FDD0E81092E9008091F000877F27
:105180008093F00078940E94E3281092E9008091C7
:10519000F00088608093F000CD2BCF70C093E900C1
:1051A000FF91EF91DF91CF91BF91AF919F918F913F
:1051B0007F916F915F914F913F912F910F900FBE13
:1051C0000F901F9018951F93CF93DF93CDB7DEB745
:1051D000AA970FB6F894DEBF0FBECDBFEDE9F2E09F
:1051E00088E08E0F9091F10091938E13FBCF0E9477
:1051F00032248091E80083FF28C180919D02909124
:105200009E02492F50E04A30510508F01EC1FA01B4
:10521000E556FF4F0C94B32A803821F0823809F00C
:1052200014C108C08091990290919A02992389F043
:1052300082600FC08091A1028F70873008F005C195
:105240008093E9008091EB0085FB882780F910921C
:10525000E9009091E800977F9093E8008093F10037
:105260001092F100D0C0282F2D7F09F0EEC08823C6
:1052700019F0823061F0E9C080919F02813009F01D
:10528000E4C0933009F080E080939A022EC08091B0
:105290009F0281112AC08091A1028F702FEF280FE9
:1052A000263008F0D2C08093E9002091EB0020FF67
:1052B0001CC0933021F48091EB00806214C0909167
:1052C000EB0090619093EB0021E030E0A90102C077
:1052D000440F551F8A95E2F74093EA001092EA00C6
:1052E0008091EB0088608093EB001092E900809140
:1052F000E800877F8093E8000E940127A6C0811103
:10530000A4C010919F021F778091E3008078812BC9
:105310008093E3008091E800877F8093E8000E94FB
:1053200001278091E80080FFFCCF8091E300806836
:105330008093E300111102C082E001C083E08093FA
:105340009C0283C08058823008F07FC080919F0209
:105350009091A0028C3D53E0950779F583E08A8314
:105360008AE289834FB7F894DE01139620E03EE08D
:1053700051E2E32FF0E050935700E49120FF03C087
:10538000E295EF703F5FEF708E2F90E0EA3010F003
:10539000C79601C0C0968D939D932F5F243149F726
:1053A0004FBF8091E800877F8093E8006AE270E059
:1053B000CE0101960E94082615C06091A10270914D
:1053C000A202AE014F5F5F4F0E942C25BC01892BCA
:1053D000E1F19091E800977F9093E80089819A81AC
:1053E0000E946B268091E8008B778093E8002DC0A7
:1053F000803859F58091E800877F8093E80080919C
:1054000098028093F1008091E8008E7773CF81112C
:105410001CC090919F029230C0F48091E800877F79
:105420008093E800909398020E940127809198024F
:10543000811106C08091E30087FD02C081E001C0B8
:1054400084E080939C020E9428248091E80083FFDE
:105450000AC08091E800877F8093E8008091EB008C
:1054600080628093EB00AA960FB6F894DEBF0FBE61
:10547000CDBFDF91CF911F9108950895CF93809173
:105480009C028823A1F0C091E900CF709091EC00BC
:10549000892F817090FD80E8C82B1092E9008091DF
:1054A000E80083FD0E94E328CF70C093E900CF910C
:1054B0000895DB018F939F930E94C82ABF91AF91FB
:1054C000A29F800D911DA39F900DB29F900D11245E
:1054D0000895AA1BBB1B51E107C0AA1FBB1FA6173B
:1054E000B70710F0A61BB70B881F991F5A95A9F78D
:1054F00080959095BC01CD01089597FB072E16F479
:10550000009407D077FD09D00E94692A07FC05D0D6
:105510003EF4909581959F4F0895709561957F4FCA
:105520000895A1E21A2EAA1BBB1BFD010DC0AA1FE4
:10553000BB1FEE1FFF1FA217B307E407F50720F0FC
:10554000A21BB30BE40BF50B661F771F881F991F77
:105550001A9469F760957095809590959B01AC01C0
:10556000BD01CF010895EE0FFF1F0590F491E02DCE
:105570000994A29FB001B39FC001A39F700D811D2C
:105580001124911DB29F700D811D1124911D08954C
:105590000E94B92AA59F900DB49F900DA49F800DE5
:1055A000911D11240895FC014150504030F00190AC
:1055B0000616D1F73197CF010895882799270895C6
:1055C000F999FECF92BD81BDF89A992780B50895CB
:1055D000A6E1B0E044E050E00C941A2BA8E1B0E062
:1055E00042E050E00C941A2B262FF999FECF92BD81
:1055F00081BDF89A019700B4021639F01FBA20BD98
:105600000FB6F894FA9AF99A0FBE08950396272FC9
:105610000E94F52A0E94F42A252F0E94F52A242FA1
:105620000C94F52A0196272F0E94F52A0C94F42A4F
:10563000DC01CB01FC01F999FECF06C0F2BDE1BD52
:10564000F89A319600B40D9241505040B8F7089541
:04565000F894FFCFFC
:1056540001021001191A1B1C1D1E1F202122080201
:105664002808140A321E2D23CC23A1236B233023B4
:1056740001F0F1C66766379431303534979633F4C8
:10568400909192939500010202020206060609090E
:10569400090909090F0F0F0F0F0F151515181919FF
:0A56A40019191919191919192324ED
:00000001FF
